:020000040800F2
:10000000000002206D4C0008BD4C0008451A000895
:10001000BD4C0008531A0008611A000800000000D7
:10002000000000000000000000000000D11B0008DC
:10003000BD4C000800000000611C00080D380008DD
:10004000BD4C0008BD4C0008BD4C0008BD4C00086C
:10005000BD4C0008BD4C0008053900080B390008EC
:1000600011390008173900081D390008BD4C000877
:10007000BD4C0008BD4C0008BD4C0008BD4C00083C
:10008000BD4C0008BD4C0008BD4C0008BD4C00082C
:10009000BD4C0008BD4C0008BD4C000823390008C9
:1000A000F53400080D340008093500083134000823
:1000B00045340008593400086D340008BD4C000870
:1000C000BD4C0008BD4C0008BD4C0008BD4C0008EC
:1000D000BD4C0008C9450008E1450008FD45000881
:1000E00039390008BD4C0008BD4C00081D3500081A
:1000F000BD34000831350008E1340008BD4C00086B
:10010000BD4C0008BD4C000881340008BD4C0008FF
:10011000194600083146000895340008A934000843
:10012000BD4C0008BD4C0008BD4C0008BD4C00088B
:10013000BD4C0008BD4C0008BD4C0008BD4C00087B
:10014000BD4C0008BD4C0008BD4C0008BD4C00086B
:10015000BD4C0008BD4C0008BD4C000849460008D5
:10016000BD4C0008BD4C0008BD4C0008BD4C00084B
:10017000BD4C0008BD4C0008BD4C0008000000004C
:08018000BD4C0008BD4C000855
:1001900010F8012B11F8013B012A28BF9A42F7D031
:1001A000D01A7047034613F8012B002AFBD1181A06
:1001B0000138704753B94AB9002908BF00281CBF4D
:1001C0004FF0FF314FF0FF3000F00CB8ADF1080CEC
:1001D0006DE904CE05F012F8DDF804E0DDE9022354
:1001E00004B07047704700BF10B5054C237833B991
:1001F000044B13B10448AFF300800123237010BDFA
:100200009000002000000000C054000808B5034B17
:100210001BB103490348AFF3008008BD0000000094
:1002200094000020C05400081FB52348352104F075
:10023000B9FB2148362104F091FB1F4806224FF4F8
:10024000E13104F037FC01241C4B1D4901934FF4AC
:10025000807200231B48009400F012FE00231A480D
:100260000393224603A900F0D1F9039BA34210D1C6
:100270001649174800F024FA16490F4804F0A4FC68
:100280004FF47A7004F0C2FD1349114800F04EFAA1
:1002900005E00A2B07D11149074804F095FC00F04E
:1002A000F3FE04B010BD0C48224603A900F0AEF9DD
:1002B000039B0133F3D0E7E7209D0020189D002029
:1002C000E35400082D030008008000080000040823
:1002D0001D9D0020ED540008000002080155000893
:1002E0007047000008B506490648002204F07EFB6E
:1002F000054800F095F9BDE80840044800F0F4B85E
:1003000000440040209D00201D9D00201C9D0020D9
:1003100008B5044800F0E9F8BDE80840024800F0DC
:1003200080B900BF1C9D00201D9D00202DE9F047D5
:100330005C4D5D4C284604F0EDF90028FADD2846B6
:1003400004F0FEFB594B2678C0B21870F6B9584F2E
:10035000584A3B880D2801D00A2813D10021D154D6
:1003600054485549FFF714FF20B95449284604F072
:100370002BFC012600211E224E482670398004F0F5
:1003800017FED7E7D05401333B80D3E7012E37D196
:100390004B4FDFF84CC1B7F80080BCF80030DFF8F5
:1003A0002CE108F1010292B20EEB8301042A01F85C
:1003B00008003A8021D11EF82320232A0CD14A7844
:1003C000232A09D18A78232A06D1CA78232A03D17D
:1003D0003C4A167005222270002201339BB23A80FB
:1003E0006422ACF80030B3FBF2F102FB11339BB294
:1003F000002B9FD1052323709CE7032A9AD9EBE7B2
:10040000052E97D1DFF8DC802F4F98F80020531C81
:10041000DBB2022BB85488F800308BD1DFF8A4A0EF
:100420003E88DFF8BC909AF80020B9F800302749E0
:1004300076BAB6B2BAB9643B4FF4C872244801EB3D
:10044000830100F01FF9B04225D12249284604F06B
:10045000BBFB9AF800308BB901232370002388F886
:1004600000303B8066E7013B642293FBF2F002FB25
:100470001030820080B292B21B1ADFE71649094899
:1004800004F0A2FB0223B9F80020104910482370A1
:1004900000F0C8F8E2E71149284604F095FB01F0A6
:1004A0009FFDDBE7209D0020169D0020F49C00208E
:1004B000149D0020F59C0020D85400080B5500081E
:1004C000B2000020AC000020AE000020B4000020EC
:1004D0001D9D0020155500081C55000824550008D6
:1004E000B0000020AD0000207047704700F1784355
:1004F00043F6FE72934234D9A3F58041914232D93A
:10050000A3F50041914230D9A3F5404393422ED93F
:1005100000F1774000F57F024FF6FE739A4228D92A
:1005200000F57E0203F580339A4224D900F57C025F
:100530009A4222D900F57A029A4220D900F578022F
:100540009A421ED900F576029A421CD900F574022F
:100550009A421AD900F57200984294BF0B200020ED
:100560007047002070470120704702207047032029
:100570007047042070470520704706207047072009
:10058000704708207047092070470A207047000014
:100590002DE9F34104460F46164601F04FFE23684D
:1005A000013308D10025B54204EB850121DB01F0C0
:1005B00057FE00201AE02046FFF798FF804604EB24
:1005C0008600FFF793FF104B0022451C1A60A5EB35
:1005D0000805022201A918461A61C3F80880DD60E7
:1005E00001F018FF0028DDD001F044FE02B0BDE8A4
:1005F000F08157F825200023022001F069FE002831
:10060000F2D10135CFE700BF389E002001EB820216
:10061000401A914200D170470B5841F8043BF8E76B
:100620007047704730B585B0013A019213480122F6
:100630000D4601A9FFF7ACFF0024114802940122E6
:1006400002A9FFF7E3FF019BA00000F100609C42BC
:1006500000F5802009D3012203A909480392FFF77E
:1006600097FF01F0BDFC05B030BD55F82430039371
:10067000012203A9FFF78CFF0134E4E700C0000862
:100680000080000830B50A444FF6FF7041F22105A2
:10069000914200D130BD11F8013B80EA03200823CC
:1006A00004B2002CB4BF85EA4404400003F1FF33D8
:1006B000B4BFA0B280B213F0FF03F1D1E8E70000AD
:1006C00030B585B017480D46012202A90024CDE9B6
:1006D0000144FFF79BFF012201A92846FFF796FF7F
:1006E000029BA00000F10060A34200F500300DD88D
:1006F000002303A901220C480393FFF749FF0122BD
:1007000003A90848FFF744FF05B030BD012201A945
:100710000435FFF73DFF012201A92846FFF776FFC8
:100720000134DDE700C00008008000080B6883F397
:100730000888024B99604B68184700BF00ED00E045
:1007400000F108034FF0FF32C0E902234360036168
:1007500000230360704700230361704743684B60C8
:100760009A688A6051609960036808610133036088
:10077000704730B50C68631C0AD103695A684A6037
:1007800091608B605960036808610133036030BD7C
:1007900000F10802134652681568A542FAD9EDE740
:1007A000D0E9011203698A6051605968814208BF2B
:1007B0005A60002202611A68013A1A60186870478C
:1007C00010B5044601F016FAA46B01F033FAB4FA3E
:1007D00084F0400910BD70B51646026C856B044666
:1007E00042B906689EB9806800F0D6FEA660013561
:1007F000A56370BD6EB9406804F05CFC6368226C50
:100800001344A2686360934224BF2368636000209E
:10081000EDE7C06804F04EFC226CE36851429B1A7D
:100820002268E36093423EBFA3685B18E360022E38
:10083000EDD10DB1013DEAE72846D8E7034610B4F3
:100840001A6C08466AB1DC68996814448C4228BF67
:100850001968DC6028BFD960D9685DF8044B04F0E2
:1008600029BC5DF8044B704770B5044601F0C2F92D
:1008700094F8455004F124066DB2002D01DD636A41
:10088000B3B9FF2384F8453001F0D4F901F0B2F98F
:1008900094F8445004F110066DB2002D01DD236977
:1008A0007BB9FF2384F84430BDE8704001F0C2B941
:1008B000304600F0D1FD08B100F058FE013D6DB2A8
:1008C000DBE7304600F0C8FD08B100F04FFE013D07
:1008D0006DB2E2E738B50D46044640B94FF050031B
:1008E00083F31188BFF36F8FBFF34F8FFEE701F0E3
:1008F00081F9D4E90F31226862604B43D0185B1A4A
:100900001A44A060FF230020A063E26084F8443012
:1009100084F84530A5B9236973B104F1100000F0E3
:100920009BFD48B14FF0E0234FF08052C3F8042DF7
:10093000BFF34F8FBFF36F8F01F07CF9012038BDFB
:1009400004F11000FFF7FCFE04F12400FFF7F8FEAD
:10095000F2E7F8B50D461746064640B94FF050038A
:1009600083F31188BFF36F8FBFF34F8FFEE74843C8
:10097000503001F0D1F8044658B165B100F1500390
:10098000C4E90F65236001212046FFF7A3FF84F827
:100990004C702046F8BD0346F2E72DE9FF410F46B3
:1009A00001921E46044640B94FF0500383F311886C
:1009B000BFF36F8FBFF34F8FFEE751B9036C43B1A5
:1009C0004FF0500383F31188BFF36F8FBFF34F8F46
:1009D000FEE7022E0BD1E36B012B08D04FF0500342
:1009E00083F31188BFF36F8FBFF34F8FFEE700F0E3
:1009F000C3FD054620B300254FF0000801F0FAF8CA
:100A0000A26BE36B9A4227D2324639462046FFF763
:100A1000E2FE636A1BB104F1240000F01DFD48B141
:100A20004FF0E0234FF08052C3F8042DBFF34F8FF7
:100A3000BFF36F8F01F0FEF8012004B0BDE8F08134
:100A4000019B002BD8D04FF0500383F31188BFF3E4
:100A50006F8FBFF34F8FFEE7022ED5D0019B1BB9DE
:100A600001F0E8F80020E8E715B902A800F036FD2B
:100A700001F0E0F800F054FB01F0BCF894F84430C9
:100A8000FF2B08BF84F8448094F84530FF2B08BF43
:100A900084F8458001F0CEF801A902A800F02AFDF3
:100AA00038BB01F0A7F8A26BE36B9A420ED101F0BC
:100AB000C1F8019904F1100000F096FC2046FFF700
:100AC000D3FE00F0DBFB48B1012597E701F0B2F857
:100AD0002046FFF7C9FE00F0D1FBF5E74FF0E02319
:100AE0004FF08052C3F8042DBFF34F8FBFF36F8FC9
:100AF000EAE72046FFF7B8FE00F0C0FBB2E72DE9B9
:100B0000F843894617461E46044640B94FF0500345
:100B100083F31188BFF36F8FBFF34F8FFEE751B997
:100B2000036C43B14FF0500383F31188BFF36F8F11
:100B3000BFF34F8FFEE7022E0BD1E36B012B08D0E2
:100B40004FF0500383F31188BFF36F8FBFF34F8FC4
:100B5000FEE701F061F9EFF311884FF0500383F3E2
:100B60001188BFF36F8FBFF34F8FA26BE36B9A4275
:100B700001D3022E1ED194F84550A36B6DB23246BC
:100B800049462046FFF727FE6B1C0ED1636A3BB136
:100B900004F1240000F060FC10B10FB101233B60B0
:100BA000012088F31188BDE8F88301356DB284F81F
:100BB0004550F5E70020F4E72DE9FF410E4601928C
:100BC000044640B94FF0500383F31188BFF36F8F91
:100BD000BFF34F8FFEE751B9036C43B14FF05003A1
:100BE00083F31188BFF36F8FBFF34F8FFEE700F0E1
:100BF000C3FC054618B300254FF0000800F0FAFFCB
:100C0000A76B47B331462046013FFFF717FEA763A6
:100C1000236973B104F1100000F01EFC48B14FF0DD
:100C2000E0234FF08052C3F8042DBFF34F8FBFF382
:100C30006F8F00F0FFFF012004B0BDE8F081019B41
:100C4000002BD9D04FF0500383F31188BFF36F8F7F
:100C5000BFF34F8FFEE7019B1BB900F0EBFF0020B5
:100C6000EAE715B902A800F039FC00F0E3FF00F054
:100C700057FA00F0BFFF94F84430FF2B08BF84F808
:100C8000448094F84530FF2B08BF84F8458000F07D
:100C9000D1FF01A902A800F02DFC00BB2046FFF700
:100CA0008FFDB0B1019904F1240000F09DFB2046B6
:100CB000FFF7DAFD00F0E2FA48B94FF0E0234FF019
:100CC0008052C3F8042DBFF34F8FBFF36F8F012500
:100CD00094E72046FFF7C8FD00F0D0FAF7E720467A
:100CE000FFF7C2FD00F0CAFA2046FFF769FD0028B1
:100CF000EDD0B4E730B5074A002352F8335002EB89
:100D0000C3041DB942F83310606030BD0133082BB5
:100D1000F3D1FAE74C9E002070B504460D46164606
:100D200000F068FF94F84430FF2B04BF002384F8E0
:100D3000443094F84530FF2B04BF002384F845303D
:100D400000F078FFA36B2BB93246294604F124004A
:100D500000F064FB2046BDE87040FFF785BD000051
:100D6000F8B51A4B1A4D1C680646286804300F4621
:100D7000FFF716FD40B92A681649D06A0B680122B0
:100D8000824023EA02030B60731C07D137B1296844
:100D90001148BDE8F8400431FFF7E0BC2B68A41906
:100DA0005C6007D30D4B18682968BDE8F840043132
:100DB000FFF7DFBC0A4B186829680431FFF7D9FC3C
:100DC000084B1A68A24288BF1C60F8BDB09E002084
:100DD000B49F0020AC9E0020B89E0020F89E00200A
:100DE000FC9E0020949E002080B5184D184F194E8F
:100DF0002B6883B9184B1B68012B09D94FF0E023EE
:100E00004FF08052C3F8042DBFF34F8FBFF36F8FA5
:100E100000F012FEEBE700F0EDFEFB68DC68201D41
:100E2000FFF7BEFC3368013B33602B68013B2B604E
:100E300000F000FF04F1580004F0C2F8206B00F04D
:100E40006DFE204600F06AFED2E700BFCC9E002077
:100E5000D09E0020B49E0020289F0020064A1368E0
:100E60001968064B19B94FF0FF321A6070471268C3
:100E7000D268D2685268F8E7FC9E0020949E002059
:100E80002DE9F84F960007463046DDF82C900D46C8
:100E9000984600F041FE824618B94FF0FF30BDE899
:100EA000F88F4FF4C07000F037FE0446002800F0C1
:100EB000C580C0F830A03246A521504604F078F82D
:100EC000236B043E1E4426F00706002D00F0A88088
:100ED0006B1E04F133020F3513F8011F02F8011FD6
:100EE00009B1AB42F8D1002384F843300A9D062DA6
:100EF00028BF06254FF0000B04F1040AE562E56403
:100F00005046C4F850B0FFF726FCC5F1070504F1C0
:100F10001800FFF720FCC4F878B14FF490725946DE
:100F20002461A561646284F87CB104F1580004F086
:100F30003FF8444BE36503F16802D03322666366F1
:100F400001220023C4E93C233F4A404BC4E93E232D
:100F50003F4BC4F800310B23A4F804314246394614
:100F6000304600F01BFE2060B9F1000F01D0C9F837
:100F7000004000F03FFE374B374F1A68374E0132C2
:100F80001A603D68002D4ED13C601B68012B1FD1BB
:100F9000B04640460135FFF7D3FB072D08F1140892
:100FA000F7D1DFF8E0802E4D4046FFF7C9FB284619
:100FB000FFF7C6FB2B48FFF7C3FB2B48FFF7C0FB2F
:100FC0002A48FFF7BDFB2A4BC3F80080294B1D6060
:100FD000294A2A491368086801331360E26A636486
:100FE00001239340034314200B6000FB0260514631
:100FF000FFF7B4FB00F01EFE214B1B6873B13B688A
:10100000DA6AE36A9A4209D24FF0E0234FF0805245
:10101000C3F8042DBFF34F8FBFF36F8F01203EE75E
:1010200084F8345062E7164B1A68E36A002ACFD17D
:101030003A68D26A9A4298BF3C60C9E7504600F0CD
:101040006DFD2AE7FCA200200E33CDAB34126DE615
:10105000ECDE0500B49E0020B49F0020289F0020F5
:10106000009F0020E49E0020D09E0020B89E00201B
:10107000FC9E0020F89E0020989E0020AC9E002040
:10108000A89E0020149F002013B51C4A1C4B0193FE
:1010900000241C491C4800942346C2F3CF02FFF7EA
:1010A000EFFE01281DD100F011FB012819D14FF0EE
:1010B000500383F31188BFF36F8FBFF34F8F134B30
:1010C000134A1B6858331360124B4FF0FF321A60FB
:1010D000114B1860114B1C6002B0BDE8104000F0CD
:1010E00019BE013008D14FF0500383F31188BFF3CC
:1010F0006F8FBFF34F8FFEE702B010BD00040000FA
:10110000909E00202E550008E90D0008B49F002095
:1011100040000020949E0020A89E0020B09E002049
:10112000024A136801331360704700BF8C9E002091
:10113000014B1868704700BFB09E0020444B1B68ED
:101140002DE9F74F002B7AD1424B1C6801341C600B
:10115000BCB9414B1A68126842B14FF0500383F397
:101160001188BFF36F8FBFF34F8FFEE73B4A1968BB
:101170001068186011603A4A136801331360FFF772
:101180006DFE384D384E2B68384F9C424FF0000BA7
:1011900017D23A68D26A14214A43B258022A344A12
:1011A000126828BF4FF0010B0AB900F05CFC314A0D
:1011B0001268002A18BF4FF0010B584603B0BDE873
:1011C000F08FDFF894A0DFF8B090DAF80020126812
:1011D0001AB94FF0FF322A60DBE7DAF80020D26854
:1011E000D2F80C80D8F804108C4201D22960D0E7E4
:1011F00008F1040318460193FFF7D2FAD8F8281033
:1012000019B108F11800FFF7CBFAD8F82C00D9F87B
:101210000030012202FA00F119434FF0140CC9F812
:1012200000100CFB00600199FFF798FA3868D8F8B5
:101230002C10C26A914228BF4FF0010BC5E70C4A3F
:101240001368013313604FF0000B00F00CFCB4E79F
:101250008C9E0020B09E0020FC9E0020F89E002066
:101260009C9E0020949E0020289F0020B49F002078
:10127000A49E0020A09E0020AC9E00202DE9F843F3
:10128000314C236843B94FF0500383F31188BFF307
:101290006F8FBFF34F8FFEE700F0ACFC2368013B7C
:1012A000236024682CB1002400F0C4FC2046BDE873
:1012B000F883264B1B68002BF5D0254D254EDFF813
:1012C000A4801FE0EB68DC6804F1040904F1180055
:1012D000FFF766FA4846FFF763FAE26A31680127CA
:1012E00007FA02F314200B4300FB028049463360E7
:1012F000FFF734FA184BE26A1B68DB6A9A4201D3A3
:10130000164B1F602B68002BDCD10CB1FFF7A6FD3C
:10131000134D2C6844B1114E0127FFF70FFF00B1A8
:101320003760013CF9D12C600C4B1B68002BBAD004
:101330004FF0E0234FF08052C3F8042DBFF34F8FDE
:10134000BFF36F8F0124AFE78C9E0020B49E002076
:10135000E49E0020AC9E0020B49F0020A09E0020B0
:10136000A49E0020289F0020194B1A68194B10B525
:1013700012B101221A6010BD1A60174B1A68B2FA36
:1013800082F2D2B2C2F11F02142314495343C81887
:10139000CC5844B94FF0500383F31188BFF36F8FDB
:1013A000BFF34F8FFEE744680833646844600B4422
:1013B0009C4204BF63684360142303FB02114B6823
:1013C000DA68074B1A601B68064A58331360D2E785
:1013D0008C9E0020A09E0020AC9E0020289F002014
:1013E000B49F00204000002010B50C4640B94FF0DB
:1013F000500383F31188BFF36F8FBFF34F8FFEE766
:10140000054B19681831FFF7B4F920460121BDE8F2
:101410001040FFF7A5BC00BFB49F002038B50D46B3
:10142000144640B94FF0500383F31188BFF36F8F18
:10143000BFF34F8FFEE7074B19681831FFF78EF99E
:10144000002C21460CBF28464FF0FF30BDE8384045
:10145000FFF786BCB49F002038B5C368DC6844B988
:101460004FF0500383F31188BFF36F8FBFF34F8F9B
:10147000FEE704F118052846FFF792F9114B1B68A7
:10148000E3B9251D2846FFF78BF90F49E26A086882
:101490000123934003430B600C4B1420294600FBAF
:1014A0000230FFF75BF90A4BE26A1B68DB6A9A427B
:1014B00083BF084B01201860002038BD064829462C
:1014C000EFE700BF8C9E0020AC9E0020289F0020EC
:1014D000B49F0020A09E0020E49E0020034B1B68C8
:1014E0000360034B1B684360704700BF9C9E002055
:1014F000B09E002070B50C46054640B94FF0500331
:1015000083F31188BFF36F8FBFF34F8FFEE741B9AD
:101510004FF0500383F31188BFF36F8FBFF34F8FEA
:10152000FEE700F067FB0F4B196823685A1C10D0C8
:101530000D482E6800686A68864201D08A420FD939
:10154000881A83420AD95B1A134423602846FFF79E
:10155000C5FF002400F06EFB204670BD0023236011
:101560000124F7E7B09E00209C9E0020014B012241
:101570001A607047A09E0020054B1B6833B1054BD5
:101580001868B0FA80F040094000704701207047A9
:10159000A89E00208C9E0020F8B5044608B90020C3
:1015A000F8BD224B1B68834208D04FF0500383F3F1
:1015B0001188BFF36F8FBFF34F8FFEE71B6D43B9E9
:1015C0004FF0500383F31188BFF36F8FBFF34F8F3A
:1015D000FEE7C16AC26C013B91420365DFD0002B7C
:1015E000DDD1061D3046FFF7DBF8114F114A50B927
:1015F000E16A14234B43FB582BB9136801258D4036
:1016000023EA05031360E36CE362C3F10701A16100
:101610001168012404FA03F514200D4300FB037044
:1016200031461560FFF79AF82046B9E7B49F0020CD
:10163000289F0020AC9E0020914208B541600061C7
:101640000AD8D21A83699A420DD2084B011D186834
:10165000FFF78FF8002008BD9A4201D2994202D2CA
:10166000034B011DF3E70120F5E700BFC49F0020F5
:10167000C89F0020F8B50F4C00F0BCFA2568ADB942
:101680000D4F0E4E3846FFF75BF83046FFF758F81F
:101690000B4B1F600B4B2A460C210A201E60FFF7E4
:1016A00058F9206010B10849FFF724FBBDE8F84065
:1016B00000F0C0BAC09F0020E09F0020CC9F002017
:1016C000C89F0020C49F00203355000807B5FFF7CE
:1016D000D1FF0F4B1B6843B94FF0500383F31188C0
:1016E000BFF36F8FBFF34F8FFEE70A4A0A4B019398
:1016F000D2080223520000930849094892B20023FD
:10170000FFF7BEFB0028E7D003B05DF804FB00BF85
:10171000C09F002000040000BC9F00203855000836
:10172000211800087FB5164604461A4640B94FF006
:10173000500383F31188BFF36F8FBFF34F8FFEE722
:101740000D4D286880B10529CDE9011603940DDC03
:10175000FFF712FF0023022808BF089A286818BF65
:101760001A4601A9FFF719F904B070BD002301A9B9
:10177000FFF7C5F9F8E700BFC09F00202DE9F34748
:10178000DFF898800646FFF7D3FCD8F80030834294
:10179000054609D91F4F3B681A686AB91E4A116885
:1017A00039601360012300E0002328463360C8F845
:1017B000005002B0BDE8F087DB68DC68D3F8009029
:1017C00004F1040A5046FEF7EBFF236A20469847CF
:1017D00094F828305B07DED5A3694B44994506D2BF
:1017E0003868636024615146FEF7C3FFD3E70023E6
:1017F00000934A4619462046FFF794FF0028CAD1B5
:101800004FF0500383F31188BFF36F8FBFF34F8FF7
:10181000FEE700BFC89F0020C49F0020B89F0020A3
:101820002DE9F043694D6A4E87B02B68D3F80080EC
:10183000B8F1000F35D0DB68D3F800800024FFF743
:101840006FFC03A8FFF79AFF039B8146002B6AD128
:10185000002C4DD1404551D3FFF710FD2B68DB68BC
:10186000DF68381DFEF79CFF97F8283058071AD517
:10187000B96943464A4641443846FFF7DDFEB0B1F8
:1018800000942346424621463846FFF74BFF70B985
:101890004FF0500383F31188BFF36F8FBFF34F8F67
:1018A000FEE70124CBE723F0010387F828303B6AE9
:1018B000384698473068002203A9FFF77DF90028D1
:1018C000B3D0039B002BF5DB059C636913B1201D8E
:1018D000FEF766FF02A8FFF751FF039B0246092BA4
:1018E000E8D8DFE803F02323234C536B23234C5326
:1018F000384B1B681C68B4FA84F4640930682246CB
:10190000A8EB0901FFF708FAFFF7B8FC0028D1D1CE
:101910004FF0E0234FF08052C3F8042DBFF34F8FF8
:10192000BFF36F8FC6E7FFF7A9FCC3E794F8283031
:10193000A16943F0010384F82830049B2046194430
:10194000FFF77AFE0028B5D0236A2046984794F81E
:1019500028305907AED5A269049900230A440093A0
:1019600019462046FFF7DEFE0028A3D14FF05003B2
:1019700083F31188BFF36F8FBFF34F8FFEE794F8A7
:10198000283023F0010384F8283093E794F82830B6
:1019900043F0010384F828300499A16141B94FF064
:1019A000500383F31188BFF36F8FBFF34F8FFEE7B0
:1019B000034601442046FFF73FFE7BE794F82830BA
:1019C0009A07DED4204600F0A9F873E7C89F0020EC
:1019D000C09F0020C49F0020064B41F658321B6870
:1019E000B3FBF2F3002243439A4200D1704700BF99
:1019F0000132F9E73C00002038B5044672B60121F7
:101A0000522003F05DF900250121522003F0C2F9B4
:101A10004FF49670FFF7E0FF0021522003F0BAF96F
:101A200001354FF49670FFF7D7FFAC42ECD14FF47D
:101A3000FA60FFF7D1FFE6E7FEF752BC08B50420D5
:101A4000FFF7DAFF08B5FFF7F9FF08B50520FFF744
:101A5000D3FF08B5FFF7F9FF08B50620FFF7CCFF65
:101A600008B5FFF7F9FF704708B5FFF785FD0128B6
:101A700003D0BDE8084000F025B908BDF8B50C4614
:101A800017490B6807464BB9164A174B9B1A174A5A
:101A900022F003029B1A164A0B601360FFF76CFDDD
:101AA00001281FBF114B104D23F00303ED1A08BF8F
:101AB0006D46FFF735FB0F4B1E683219AA4207D956
:101AC0000C233B60FFF7DAFB4FF0FF363046F8BDE2
:101AD0001A60074A13681B1B1360FFF7CFFBF5E77B
:101AE000F49F002038A40020000002200004000021
:101AF000F89F002000000020EFF305830BB9FFF7EB
:101B00000FBB4FF0500383F31188BFF36F8FBFF308
:101B10004F8FFEE7FFF7B2BB03F098B903F09EB911
:101B200008480068006880F308884FF0000080F3E0
:101B3000148862B661B6BFF34F8FBFF36F8F00DFBB
:101B400000BF000008ED00E0DFF80C00016841F480
:101B5000700101607047000088ED00E082B0002352
:101B600001930D4B1B68013308D04FF0500383F3F2
:101B70001188BFF36F8FBFF34F8FFEE74FF0500315
:101B800083F31188BFF36F8FBFF34F8F019B002B3F
:101B9000FCD002B0704700BF040000204FF08073FB
:101BA00040F8043C074B40F80C3C21F001016FF079
:101BB000020340F8081C40F8202C40F8243C44382C
:101BC000704700BF5D1B000800000000000000001F
:101BD000074B19680868B0E8F04F80F30988BFF335
:101BE0006F8F4FF0000080F311887047AFF30080D3
:101BF000B49F00204FF0500383F31188BFF36F8F21
:101C0000BFF34F8F0A4A13680133012B13600ED1C3
:101C10004FF0E023D3F8043DDBB243B14FF0500363
:101C200083F31188BFF36F8FBFF34F8FFEE77047C9
:101C300004000020084A136843B94FF0500383F3AF
:101C40001188BFF36F8FBFF34F8FFEE7013B136027
:101C50000BB983F3118870470400002000000000D6
:101C6000EFF30980BFF36F8F154B1A681EF0100F4A
:101C700008BF20ED108A20E9F04F10602DE909001F
:101C80004FF0500080F31188BFF34F8FBFF36F8F79
:101C9000FFF76AFB4FF0000080F3118809BC196858
:101CA0000868B0E8F04F1EF0100F08BFB0EC108AC3
:101CB00080F30988BFF36F8F704700BFAFF30080D8
:101CC000B49F002008B54FF0500383F31188BFF391
:101CD0006F8FBFF34F8FFFF731FA28B14FF0E0233A
:101CE0004FF08052C3F8042D002383F3118808BD00
:101CF0004FF0E022002313619361054B4FF47A719A
:101D00001B68B3FBF1F3013B536107231361704779
:101D10003C0000204FF0E02337B5D3F8001D384ACF
:101D2000914208D14FF0500383F31188BFF36F8FB6
:101D3000BFF34F8FFEE7D3F8002D324B9A4208D104
:101D40004FF0500383F31188BFF36F8FBFF34F8FB2
:101D5000FEE72D4B1A78D2B20192FF221A701B783F
:101D60002A4ADBB28DF803309DF8033003F05003AC
:101D70001370274A072313609DF8031013680906A0
:101D80000AD4032B11D04FF0500383F31188BFF313
:101D90006F8FBFF34F8FFEE7013B13609DF8033059
:101DA0005B00DBB28DF80330E6E74FF4407313605D
:101DB000019B154A4FF0E024DBB21370D4F8203DAC
:101DC00043F46003C4F8203DD4F8203D43F0604361
:101DD000C4F8203DFFF78CFF0E4B00251D60FFF778
:101DE000B3FED4F8343F43F04043C4F8343FFFF728
:101DF00097FEFFF7B9FAFFF7B1FE284603B030BDF2
:101E000071C20F4170C20F4100E400E000A0002049
:101E1000FC9F002004000020EFF305830F2B0ED958
:101E2000114A9B5C114A12789A4208D94FF050032C
:101E300083F31188BFF36F8FBFF34F8FFEE74FF02F
:101E4000E0230B4AD3F80C3D126803F4E06393429D
:101E500008D94FF0500383F31188BFF36F8FBFF39E
:101E60004F8FFEE7704700BFF0E300E000A00020C6
:101E7000FC9F00207047000038B50E4B1A784FF4D5
:101E80007A73B3FBF2F30C4A05461068B0FBF3F02B
:101E900000F0B8F8044658B90F2D09D80246294673
:101EA0004FF0FF3000F04AF8044B20461D6038BD6B
:101EB0000120FCE7080000203C0000200C0000206E
:101EC00008B50B4B1A6842F400721A601A6842F4A3
:101ED00080621A601A6842F480721A60032000F06F
:101EE0001BF80020FFF7C8FFFFF7C4FF002008BD64
:101EF000003C0240034A044B11681B780B441360FA
:101F0000704700BF04A0002008000020014B1868A3
:101F1000704700BF04A000200749CA6822F4E062AD
:101F20000302120403F4E063120C134343F0BF6393
:101F300043F40033CB60704700ED00E0164B30B542
:101F4000DC68C4F30224C4F10703251D042B28BF59
:101F50000423062D4FF0FF358CBF033C002405FA07
:101F600003F321EA0303A54022EA0502A340002867
:101F700043EA0203ACBF00F16040084A4FEA031392
:101F8000B8BF00F00F00DBB2AABF00F561401354E8
:101F900080F8003330BD00BF00ED00E014ED00E03C
:101FA000002807DB044A4109012300F01F00834099
:101FB00042F82130704700BF00E100E000280CDB50
:101FC0004309064900F01F0020330122824041F8F6
:101FD0002320BFF34F8FBFF36F8F704700E100E006
:101FE000BFF34F8F0549064BCA6802F4E062134302
:101FF000CB60BFF34F8F00BFFDE700BF00ED00E0F7
:102000000400FA050138B0F1807F0BD24FF0E023D5
:10201000054A5861F02182F82310002007229861B8
:102020001A6170470120704700ED00E0002808DBCE
:102030004309044900F01F0001226033824041F847
:102040002320704700E100E0704708B5FFF7FCFF70
:1020500008BD704710B5044650B1437903F0FF0244
:1020600013B90271FFF7F5FF01236371002010BD62
:102070000120FCE710B5044640B10223037101F0D2
:1020800065FB002020616071207110BD0120FCE71C
:1020900010B5012358B1046801F01001226803FA59
:1020A00001F122EA010222600371002010BD1846EE
:1020B000FCE770B50446866DFFF728FF94F83530CD
:1020C000022B054606D0802363650120002384F897
:1020D000343070BD23681A6822F016021A605A69FB
:1020E00022F080025A61226C0AB9A26C1AB11A68F5
:1020F00022F008021A601A6822F001021A602368AE
:10210000186810F0010007D1E26D3F239340B360DF
:10211000012384F83530D9E7FFF7F8FE401B052886
:10212000EDD920230320636584F83500CEE790F8CD
:102130003530022B03D080234365012070470268AD
:10214000052380F83530136823F001031360002065
:1021500070470000094910B50C6924F440740C6103
:102160000C6944F440740C610C6944F001040C6186
:102170000260BFF36F8F436010BD00BF003C0240A0
:10218000074B1A6922F440721A611A6942F400720C
:102190001A611A6942F001021A610160704700BFBA
:1021A000003C0240074B1A6922F440721A611A6916
:1021B00042F480721A611A6942F001021A610180C8
:1021C000704700BF003C02401A4BDA68D20606D5C1
:1021D0001949CA6942F01002CA611022DA60DA684D
:1021E000900606D51449CA6942F00802CA61202245
:1021F000DA60104BDA68510606D50F49CA6942F019
:102200000402CA614022DA60DA68120606D50A4979
:10221000CA6942F00202CA618022DA60054AD368C4
:102220009B0706D50449CB6943F02003CB61022309
:10223000D3607047003C024008A00020064B1A699A
:10224000002ABFBF054A5A6002F188325A60BABFFD
:102250001869C00F00207047003C02402301674509
:10226000034A136943F0004313610020704700BF25
:10227000003C0240014BD869704700BF08A0002015
:10228000114B70B500220446DA61FFF73FFE0F4D97
:102290000646EB68DA030CD4EB68DB0744BF012386
:1022A000EB60E86810F0F20007D0FFF78DFF012027
:1022B00003E0611CEDD00CB9032070BDFFF726FED2
:1022C000801BA042E5D9F7E708A00020003C0240AF
:1022D0002DE9F0411F4E9846337E012B07460D46EF
:1022E000144635D001234CF250303376FFF7C8FF47
:1022F000B0B9CFB9184B1A6922F440721A611A6941
:102300001A611A69E4B242F001021A612C704CF2AF
:102310005030FFF7B5FF104A136923F00103136132
:1023200000233376BDE8F081012F04D1A1B2284605
:10233000FFF738FFEBE7022F04D121462846FFF7CD
:102340001FFFE4E7224643462846FFF703FFDEE788
:102350000220E7E708A00020003C0240074B1A6972
:1023600022F440721A611A6942F004021A611A6971
:1023700042EA002242F480321A617047003C024077
:102380000D4B1A6922F440721A611A69022994BF2E
:1023900009024FF440710A431A611A6922F0F802E7
:1023A0001A611A6942EAC00040F0020018611A6915
:1023B00042F480321A617047003C0240144B1A68A4
:1023C00091050FD51A6822F400721A601A6842F457
:1023D00000621A601A6822F400621A601A6842F4F5
:1023E00000721A600A4B1A6852050FD51A6822F457
:1023F00080621A601A6842F480521A601A6822F4E5
:1024000080521A601A6842F480621A60704700BFF6
:10241000003C02402DE9F843DFF8948098F818302A
:10242000012B05460F463FD001234CF2503088F86F
:102430001830FFF725FF0446A0B94FF0FF333B608B
:102440002B68012B14D1287CFFF788FF4CF2503009
:10245000FFF716FF154A136923F0040304461361BE
:10246000FFF7ACFF002388F818302046BDE8F8835A
:10247000AE68DFF83890D5E902231344B342EFD9B0
:10248000297C3046FFF77CFF4CF25030FFF7F8FE16
:10249000D9F8103023F0FA03C9F8103010B13E60BB
:1024A0000446DDE70136E6E70224DEE7003C0240B1
:1024B00008A00020044A5169014208B502D05061C9
:1024C00001F00AFA08BD00BF003C01402DE9F341CC
:1024D000044640B30368DE0710D423689D075BD42D
:1024E0002368190700F19D8023685A0700F1BD8019
:1024F000A369002B40F0248100202CE08D4B9A68CA
:1025000002F00C02042A07D09A6802F00C02082A92
:102510000BD15B68590208D5864B1B689A03DCD542
:102520006368002BD9D1012015E06368814DB3F5B4
:10253000803F13D12B6843F480332B60FFF7E6FC18
:102540007C4E054633689B03C7D4FFF7DFFC401B76
:102550006428F7D9032002B0BDE8F081B3F5A02FBD
:1025600004D12B6843F480232B60E3E72A6822F42C
:1025700080322A602A6822F480222A60002BDDD172
:10258000FFF7C4FC06462B689F03A6D5FFF7BEFCE9
:10259000801B6428F7D9DDE7664B9A6812F00C0FB0
:1025A00007D09A6802F00C02082A11D15B685D021C
:1025B0000ED4604A1368990702D5E368012BB2D1A3
:1025C0001368216923F0F80343EAC103136087E726
:1025D000E268594BB2B101221A60FFF797FC554DE2
:1025E00006462B689B0707D52B68226923F0F80362
:1025F00043EAC2032B6073E7FFF788FC801B0228C5
:10260000EFD9A7E71A60FFF781FC4A4E0546336809
:102610009F077FF565AFFFF779FC401B0228F6D9CD
:1026200098E76269444B82B10122C3F8802EFFF71C
:102630006DFC404E0546736F9B073FF555AFFFF7A6
:1026400065FC401B0228F6D984E7C3F8802EFFF70B
:102650005DFC384E0546736F9F077FF545AFFFF76A
:1026600055FC401B0228F6D974E7324B1A6C12F065
:10267000805228D101921A6C42F080521A641B6C6D
:1026800003F080530193019B01272C4D2B68D80543
:102690001BD5A368274D012B27D12B6F43F00103D6
:1026A0002B67FFF733FC234E054641F28838336F22
:1026B0009A0739D5002F3FF41BAF1E4A136C23F045
:1026C0008053136414E70027DFE72B6843F480731B
:1026D0002B60FFF71BFC06462B68D905D9D4FFF702
:1026E00015FC801B0228F7D934E7052B04D12B6F8A
:1026F00043F004032B67D0E72A6F22F001022A6718
:102700002A6F22F004022A67002BCAD1FFF7FEFBD2
:1027100041F2883806462B6F9B07CBD5FFF7F6FBB7
:10272000801B4045F7D915E7FFF7F0FB401B4045FC
:10273000BDD90FE70038024000004742007000405A
:10274000374DAA6802F00C02082A3ED0022B354B06
:102750004FF000021A662BD1FFF7D8FB06462B6814
:1027600099011FD4D4E907321343626A43EA821302
:10277000E26A43EA0263A26A5208013A43EA024368
:102780006B60284B264D01221A66FFF7BFFB0446FB
:102790002B689A013FF5B0AEFFF7B8FB001B02288B
:1027A000F6D9D7E6FFF7B2FB801B0228D7D9D1E6CE
:1027B000FFF7ACFB04462B689B017FF59DAEFFF74E
:1027C000A5FB001B0228F6D9C4E6012B3FF4ABAEF3
:1027D0006B68E26903F4800191427FF4A4AE216A40
:1027E00003F03F028A427FF49EAE616A47F6C072F0
:1027F0001A40B2EB811F7FF496AEA26A520803F42E
:102800004031013AB1EB024F7FF48DAEE26A03F042
:102810007063B3EB026F14BF012000209BE600BF82
:102820000038024000004742134908B58B6803F0A6
:102830000C03042B1CD0082B1CD14A684B68496838
:1028400013F4800314BF0D480D48C1F3881118BF5D
:10285000002302F03F02A1FB0001FDF7ABFC064B99
:102860005B68C3F3014301335B00B0FBF3F008BDC9
:102870000248FCE70248FAE70038024000127A00FA
:102880000024F4002DE9F0410D46044610B9012062
:10289000BDE8F081434B1A6802F007028A4228D350
:1028A00021688F072DD4C80740D43E4B1A6802F028
:1028B0000702AA4265D8226851076BD4130707D5CF
:1028C000394A2169936823F4604343EAC103936062
:1028D000FFF7AAFF344B354A9B68C3F30313D35C5D
:1028E000D840334B1860334B1868FFF7C5FA002007
:1028F000CEE7CAB21A701B6803F007038B42C6D139
:10290000CEE7294B11F0040F1EBF9A6842F4E05243
:102910009A600E0742BF9A6842F460429A609A68D1
:10292000A06822F0F00202439A60BCE762681E4B86
:10293000012A1CD11B6813F4003FA8D01A4EB368BB
:1029400023F003031343B360FFF7E0FA41F2883842
:102950000746B368626803F00C03B3EB820FA4D0A0
:10296000FFF7D4FAC01B4045F3D9032090E7911E2E
:1029700001291B6802D813F0007FDEE713F0020F75
:10298000DBE7EAB21A701B6803F00703AB427FF47F
:102990007EAF90E70449E0688B6823F4E05303437B
:1029A0008B608BE7003C0240003802408C550008E9
:1029B0003C0000200C000020044B054A9B68C3F338
:1029C0008223D35C034A1068D84070470038024025
:1029D000845500083C000020044B054A9B68C3F363
:1029E0004233D35C034A1068D84070470038024035
:1029F000845500083C00002070477047036870B59C
:102A0000DD681E69B10704460DD5AA070BD56FF026
:102A100002021A61012202779B699B0769D000F0CC
:102A2000E4FD00232377710710D56A070ED52368CC
:102A30006FF004021A61022222779B6913F4407F2F
:102A400020465CD000F0D1FD0023237733070FD55B
:102A500028070DD523686FF008021A610422227737
:102A6000DB699907204650D000F0BFFD0023237793
:102A7000F20610D5EB060ED523686FF010021A612E
:102A800008222277DB6913F4407F204643D000F010
:102A9000ACFD00232377F00708D5E90706D52368A6
:102AA0006FF001021A61204600F07CFD320608D565
:102AB0002B0606D523686FF080021A61204600F0CD
:102AC000B6F8700608D5690606D523686FF040028F
:102AD0001A612046FFF791FFB20622D5AB0620D53A
:102AE00023686FF0200220461A61BDE8704000F0B4
:102AF0009DB800F078FD2046FFF77EFF91E700F0DB
:102B000072FD2046FFF778FF9EE700F06CFD20463F
:102B1000FFF772FFAAE700F066FD2046FFF76CFFA3
:102B2000B7E770BD294A0368904212D0B0F1804FD8
:102B30000FD0A2F57C4290420BD002F58062904209
:102B400007D002F58062904203D002F578429042AD
:102B500008D14A6823F070031343CA6823F4407312
:102B6000134316E01A4A9042F7D002F58062904271
:102B7000F3D002F580629042EFD0A2F598329042F5
:102B8000EBD002F580629042E7D002F5806290427D
:102B9000E3D04A6923F08003134303608B68C36268
:102BA0000B688362094B984203D003F58063984217
:102BB00001D10B690363012343610369DB0742BF52
:102BC000036923F001030361704700BF0000014067
:102BD0000040014010B5044630B390F83D3003F09A
:102BE000FF021BB980F83C2001F09EFA0223206806
:102BF00084F83D30211DFFF795FF012384F846300E
:102C0000002084F83E3084F83F3084F8403084F867
:102C1000413084F8423084F8433084F8443084F8FA
:102C2000453084F83D3010BD0120FCE77047704707
:102C3000026802F10C0353E8003F23F490730C3256
:102C400042E8003102680029F2D102F1140353E88E
:102C5000003F23F0010302F1140C4CE8003100297D
:102C6000F3D1036B012B0BD102F10C0353E8003FAE
:102C700023F0100302F10C0C4CE800310029F3D1D1
:102C8000202380F842300023036370470268C16844
:102C900038B5136923F440530B4313610546836829
:102CA0000069D168034368690343E86921F4164168
:102CB00021F00C0103430B43D3605369A96923F44A
:102CC00040730B4353611F4B9A4203D003F580635B
:102CD0009A4224D1FFF780FEEA691921B2F5004F2C
:102CE000D5E90043A0FB01011CD1DA184FF0000523
:102CF00045EB0503FDF75EFA6422B0FBF2F102FB3F
:102D00001103DB003233B3FBF2F303F007025B0085
:102D100002EB011203F4F8731344A36038BDFFF70C
:102D20004BFED9E79A009B0FFDF744FA6422B0FBF3
:102D3000F2F102FB11031B013233B3FBF2F303EB9D
:102D40000113EAE700100140704710B5044648B38C
:102D500090F8413003F0FF021BB980F84020FFF7E4
:102D6000F3FF2268242384F84130D36823F400530E
:102D7000D3602046FFF78AFF23681A6922F4904245
:102D80001A615A6922F02A025A61DA6842F4005242
:102D9000DA6000202023606484F8413084F84230F7
:102DA000606310BD0120FCE710B5044668B390F8DD
:102DB000413003F0FF021BB980F84020FFF7C4FF49
:102DC0002268242384F84130D36823F40053D3606D
:102DD0002046FFF75BFF23681A6922F490421A61CC
:102DE0005A6922F022025A615A6942F008025A6175
:102DF000DA6842F40052DA6000202023606484F82C
:102E0000413084F84230606310BD0120FCE790F847
:102E10004130202B10D189B182B1C28401628284F9
:102E2000016800232122436480F84120CA6842F0EF
:102E30008002CA6018467047022070470120704720
:102E400008B5806B0023C385C38401F07FFB08BDF8
:102E5000704790F84230222B07B542D18168026852
:102E6000836AB1F5805F3FD1016900293FD1526883
:102E7000C2F3080223F8022B8362C38D013B9BB28D
:102E8000C385002B2DD10268D16821F02001D160CB
:102E9000D16821F48071D160516921F00101516143
:102EA000202280F842204363026B012A026828D165
:102EB000036302F10C0353E8003F23F0100302F117
:102EC0000C0C4CE800310029F3D11368DB0605D562
:102ED00001911368019353680193019B818DFFF762
:102EE000B7FF03B05DF804FB39B9016929B952682D
:102EF000D2B21A70836A0133BEE7526802F07F02D1
:102F0000F7E701F01DFBECE703681A6873B51607D5
:102F1000D9685D69044608D1960668D58D0666D5E0
:102F200002B0BDE87040FFF794BF05F0010001F466
:102F3000907505435BD0D60705D5CD0542BF636CC0
:102F400043F001036364530704D518B1636C43F085
:102F500002036364960704D518B1636C43F004035D
:102F60006364150707D501F0200303431EBF636C9C
:102F700043F008036364636C002B32D0920604D5DF
:102F80008B0602D52046FFF764FF26687369626CE2
:102F900003F0400302F0080253EA0205204622D063
:102FA000FFF746FE73695E0618D5226802F1140326
:102FB00053E8003F23F04003143242E80031002977
:102FC000F3D1E06B50B1744B0365FFF7B0F840B13B
:102FD000E06B036D02B0BDE870401847204601F079
:102FE000B5FA02B070BD01F0B1FA6564F9E7206B83
:102FF000012840F09580D50640F19280C80640F146
:103000008F80002201921A6801925A680192019AF7
:103010005A6952064ED5E16B0A68526892B2002A8C
:10302000DFD0A08D9042DCD9E285CA69B2F5807FFD
:1030300036D003F10C0252E8002F22F4807203F123
:103040000C0040E800210029F3D103F1140252E8FA
:10305000002F22F0010203F1140040E800210029B2
:10306000F3D103F1140252E8002F22F0400203F1E1
:10307000140040E800210029F3D1202284F84220E6
:10308000216303F10C0252E8002F22F0100203F139
:103090000C0040E800210029F3D1E06BFFF709F8AC
:1030A00002236363E38DA18DC91A89B22046FFF71D
:1030B000CFFE96E7E28DE08DA18D80B292B200281E
:1030C0008FD0891A89B200298BD003F10C0252E803
:1030D000002F22F4907203F10C0545E8002000282F
:1030E000F3D103F1140252E8002F22F0010203F1A0
:1030F000140545E800200028F3D1202284F842205E
:10310000206303F10C0252E8002F22F0100203F1B9
:103110000C0545E800200028F3D102236363C5E7CE
:10312000160628D50D0626D594F84120212A7FF4CD
:1031300058AFA168226AB1F5805F17D12169A9B99A
:1031400032F8021BC1F3080159602262E28C013A95
:1031500092B2E284002A7FF444AFDA6822F080025F
:10316000DA60DA6842F04002DA603AE7511C216224
:1031700012785A60EAE750067FF533AF4A067FF5CA
:1031800030AFDA6822F04002DA60202384F8413060
:10319000204601F0D8F924E7412E000890F840308D
:1031A000012B11D00268242380F84130D36823F02A
:1031B0000C0343F00803D360202380F84130002340
:1031C00080F84030184670470220704790F8403031
:1031D000012B11D00268242380F84130D36823F0FA
:1031E0000C0343F00403D360202380F84130002314
:1031F00080F84030184670470220704790F8412010
:1032000090F8420010437047C2850023828502690E
:103210004364222380F84230816203681AB1DA687D
:1032200042F48072DA605A6942F001025A61DA6847
:1032300042F02002DA600020704770B490F84260DB
:10324000202E06D141B13AB10024046370BCFFF7CF
:10325000DBBF022070BC70470120FBE7836810B51C
:1032600004462BB10322014698470023C4E90233E8
:1032700010BD836810B5044613B103220146984778
:10328000204610BD294A9042034633D0B0F1804F0A
:1032900032D0A2F57C42904230D002F5806290425A
:1032A0002ED002F5806290422CD002F580629042CE
:1032B0002AD002F58062904228D002F570429042F6
:1032C00026D04FF6FF701A4A934223D0194A9342F0
:1032D00022D0194A934221D0184A934220D0184A4A
:1032E00093421FD0174A93421ED04FF6FF73984265
:1032F0001BD1FEE70020E6E70120E7E70220E8E730
:103300000320E9E70420EAE70520EBE70620ECE7E5
:103310000720704708207047092070470A2070472F
:103320000B2070470C2070470D20704700000140B3
:1033300000400140004401400048014000180040A6
:10334000001C004000200040014670B5044651F8C2
:10335000100FFFF797FF0546084600F091FD094A58
:10336000002342F8253004F16006E36004F1B00563
:10337000B54204D0103D2846FFF77BFFF8E7204612
:1033800070BD00BF28A00020F8B504460846FFF72E
:1033900079FF236903B1FEE71B4DA36404F10C021E
:1033A00045F8202004F110060E22C4E90C33C4E9CC
:1033B0000E33C4E91033C4E91623216184F82C309C
:1033C00084F84C3084F84D30E460304600F060FC06
:1033D00004F1600504F1B00728461035FFF73EFF01
:1033E000BD42F9D10023C4E900334FF6FF72C4E9AE
:1033F0000632C4E90833A36063618023A3623046C8
:10340000BDE8F840FFF7E6BB28A0002010B5074C48
:10341000206810B10430FFF7F1FA606A20B1BDE80E
:1034200010400430FFF7EABA10BD00BF28A000200A
:10343000034B186810B10430FFF7E0BA704700BFC3
:1034400028A00020034B586810B10430FFF7D6BA0B
:10345000704700BF28A00020034B986810B10430CB
:10346000FFF7CCBA704700BF28A00020034BD868F4
:1034700010B10430FFF7C2BA704700BF28A0002087
:10348000034B186910B10430FFF7B8BA704700BF9A
:1034900028A00020034B586910B10430FFF7AEBAE2
:1034A000704700BF28A00020034B986910B104307A
:1034B000FFF7A4BA704700BF28A0002010B5074C42
:1034C000E06910B10430FFF799FA206B20B1BDE834
:1034D00010400430FFF792BA10BD00BF28A00020B2
:1034E000034BD86910B10430FFF788BA704700BFAA
:1034F00028A00020034B186A10B10430FFF77EBAF1
:10350000704700BF28A00020034B986A10B1043018
:10351000FFF774BA704700BF28A00020034BD86A99
:1035200010B10430FFF76ABA704700BF28A000202E
:10353000034B586B10B10430FFF760BA704700BFFF
:1035400028A000200022C0E90022C0E90222704722
:10355000F8B504460E4600F1600500F1B0072846B4
:103560001035FFF7EFFFBD42F9D10023204623615C
:103570003146FFF709FF2046F8BD826810B50AB949
:1035800001F09AFFBDE81040C368184708B500B9BC
:10359000FEE700F07BFB0068836E13B16030FFF73D
:1035A000ECFF08BDFFF7F2BF10B500B9FEE7037FDF
:1035B000013B072B10D8DFE803F004140F100F0FA6
:1035C0000F12012400F062FB0068063400EB0410C7
:1035D00083680BB1FFF7D1FF10BD0324F2E7042489
:1035E000F0E70224EEE7FFF7DFBFFFF7DDBF01F0F2
:1035F0002DBC01F033BC00008AB0002308287CD821
:10360000DFE800F00513202D3A4754616E00019366
:103610003B4B3C481A6B42F001021A631B6B03F0F0
:1036200001030193019B0AB070470293344B364863
:103630001A6B42F002021A631B6B03F0020302933F
:10364000029BF0E703932E4B30481A6B42F00402C2
:103650001A631B6B03F004030393039BE3E70493D8
:10366000274B2B481A6B42F008021A631B6B03F0BE
:1036700008030493049BD6E70593214B25481A6B56
:1036800042F010021A631B6B03F010030593059BB5
:10369000C9E706931A4B20481A6B42F020021A63BE
:1036A0001B6B03F020030693069BBCE70793144BA8
:1036B0001A481A6B42F040021A631B6B03F0400376
:1036C0000793079BAFE708930D4B15481A6B42F021
:1036D00080021A631B6B03F080030893089BA2E728
:1036E0000993074B0F481A6B42F480721A631B6BE5
:1036F00003F480730993099B95E7002093E700BFCB
:10370000003802400000024000040240000802406D
:10371000000C024000100240001402400018024059
:10372000001C02400020024008B5074900F076FA6C
:10373000C0F3C430012802D0022802D0FEE70020E6
:1037400008BD1020FCE700BF885A00080268094B3A
:103750009A420DD103F5E2331A6A42F000521A621E
:103760001A6A22F000521A621A6C22F000521A648D
:10377000704700BF0074004010B50B4986B0044686
:1037800000F02AFA019060B12046FFF7CDFF30F03B
:103790001003014605D101A8FEF77AFC01A8FEF747
:1037A00069FC06B010BD00BF885A0008F8B514497E
:1037B000144E074600F010FAFFF764FD56F820306B
:1037C000044673B9B020FFF712FF0D49054638468D
:1037D00000F002FA01462846FFF7BAFE56F82430F8
:1037E0001D6056F824301C6844B12046FFF7ACFD3C
:1037F0002046B021BDE8F840FFF7FBBEF8BD00BF92
:103800004C57000828A00020FEF780BB08B5FEF743
:1038100071FBFEF71AFCFEF727F908BD70470000A0
:1038200084B0114B00220192196C41F0805119644F
:10383000196C01F08051019101990292596C41F487
:1038400080415964596C01F48041029102990392BC
:103850001A6B42F480521A631B6B03F48053039378
:10386000039B04B0704700BF003802400C4BD3F8F4
:10387000FC20D2015EBFD3F8FC2042F08072C3F876
:10388000FC20084B00225A601A6842F001021A60BC
:1038900000BF00BF00BF5868B0FA80F04009704711
:1038A00000ED00E0001000E008B5FFF7B9FFFFF7FA
:1038B000DDFFFEF705FBFFF7B1FF00F0DDFEBDE821
:1038C00008400148FEF7C6BB340000200023C0E9D1
:1038D0000033C0E9023370470023012803F10102DD
:1038E0000AD11422DBB25343054A181D10448168E3
:1038F00029B11A441369184740081346EDE7704789
:1039000060A000200120FEF7D5BD0220FEF7D2BD49
:103910000420FEF7CFBD0820FEF7CCBD1020FEF737
:10392000C9BD38B505242025A8B2FEF7C3FD013C6A
:103930004FEA4505F8D138BD38B506244FF4806507
:10394000A8B2FEF7B7FD013C4FEA4505F8D138BDF6
:10395000344A104608B5062300F8043BFFF7B6FFCB
:10396000072302F118001375FFF7B0FF082302F1D7
:103970002C0082F82830FFF7A9FF092302F140004C
:1039800082F83C30FFF7A2FF0A2302F1540082F8CC
:1039900050301721FFF79AFF02F1680082F8641097
:1039A000FFF794FF02F17C0082F87810FFF78EFF9A
:1039B00002F1900082F88C10FFF788FF02F1A4005A
:1039C00082F8A010FFF782FF02F1B80082F8B4106D
:1039D0002821FFF77BFF02F1CC0082F8C810FFF727
:1039E00075FF02F1E00082F8DC10FFF76FFF02F1D3
:1039F000F40082F8F010FFF769FF02F5847082F896
:103A00000411FFF763FF02F58E7082F81811FFF7BB
:103A10005DFFBDE8084002F5987082F82C11FFF7B1
:103A200055BF00BF60A0002038B5054CA4F5A075B7
:103A3000143C201DFFF71DFCAC42F9D138BD00BF7E
:103A4000A0A1002030B591FAA1F391FAA1F1B3FA47
:103A500083F3C4685B000325B1FA81F105FA03F32F
:103A6000490024EA03038A401A43C26030BD431C64
:103A700004D00C3151F80C3C5A1C01D10020704785
:103A8000834201F10C01F5D101207047F8B5471CC4
:103A900006460D4600D1FEE700F00F02414BC0F391
:103AA000031053F82240FFF7A7FD94FAA4F3B3FAEA
:103AB00083F3876803225B0002FA03F394FAA4F20B
:103AC000B2FA82F227EA03075200032393403B43F2
:103AD00005F007018360032903D8DFE801F05F6187
:103AE0002C03FEE7032394FAA4F2B2FA82F20668EA
:103AF0005200032707FA02F226EA020694FAA4F219
:103B0000B2FA82F252009340013933430129036033
:103B100005D843682A074CBF2343A3434360C5F33A
:103B20000112012A02D0022A18BF00222146BDE854
:103B3000F840FFF787BFC5F306227F2A01D1022391
:103B4000D1E7360716D5230A93FAA3F6B6FA86F616
:103B5000476A93FAA3F3B6004FF00F0CB3FA83F35E
:103B60000CFA06F69B0027EA060602FA03F3334333
:103B70004362E4E794FAA4F3B3FA83F3066A9B0082
:103B80000F2707FA03F326EA030694FAA4F3B3FA1D
:103B900083F39B009A4032430262D0E70023A2E7FE
:103BA0000123A0E744550008431C06D17047834217
:103BB00002D18968FFF76ABF0C310B685A1CF6D135
:103BC000FEE70B685A1C01D100207047834201D1E7
:103BD000486870470C31F4E7431C01D0FFF7F1BF90
:103BE000002070474B6813B94FF0FF307047834295
:103BF00001D1086870470C31F4E708B1FFF7F2BF54
:103C00004FF0FF30704703460868421C00D17047F0
:103C1000984201D1886870470C31F5E7431C01D008
:103C2000FFF7F1BF704703468B42084604D01BB133
:103C300000290CBF18460020704700001049D1F839
:103C4000883043F47003C1F888300E4B1A6842F094
:103C500001021A6000229A601A6822F0847222F42B
:103C600080321A60084A5A601A6822F480221A6068
:103C70004FF43F02DA604FF000638B60704700BF83
:103C800000ED00E000380240103000240438704796
:103C900003686D4A93428EB02AD1002200926B4A8B
:103CA000516C41F001015164526C02F0010200922A
:103CB000009A674A93422AD100220592634A116C06
:103CC00041F010011164126C02F010020592059A85
:103CD000604A93422AD100230A935C4B5A6C42F407
:103CE00080225A645B6C03F480230A930A9BA9E048
:103CF000B3F1804F2AD100220192544A116C41F055
:103D000001011164126C02F001020192019A524AFF
:103D100093422AD1002206924C4A116C41F02001B4
:103D20001164126C02F020020692069A4B4A9342EA
:103D30002AD100230B93454B1A6C42F040021A64BF
:103D40001B6C03F040030B930B9B7BE0444A9342B4
:103D50002AD1002202923D4A116C41F00201116405
:103D6000126C02F002020292029A3E4A93422AD157
:103D700000220792354A516C41F002015164526CA5
:103D800002F002020792079A374A93422AD100238F
:103D90000C932E4B1A6C42F080021A641B6C03F0D9
:103DA00080030C930C9B4DE0304A93422AD10022B1
:103DB0000392264A116C41F004011164126C02F066
:103DC00004020392039A2A4A93422BD100220892BA
:103DD0001E4A516C41F480315164526C02F48032BD
:103DE0000892089A234A93422CD100230D93174B33
:103DF0001A6C42F480721A641B6C03F480730D9386
:103E00000D9B1FE01C4A93427FF453AF00220492A3
:103E10000E4A116C41F008011164126C02F00802A4
:103E20000492049A154A93427FF452AF00230993F7
:103E3000064B5A6C42F400325A645B6C03F4003354
:103E40000993099B0EB07047000001400038024002
:103E500000100040004801400014004000180040DD
:103E60000004004000040140001C00400008004025
:103E70000040014000200040000C00400044014090
:103E800003683B4A934215D13A494A6C22F0010239
:103E90004A64394A934215D136490A6C22F010021D
:103EA0000A64364A934215D102F57042536C23F4EA
:103EB00080235BE0B3F1804F16D12E490A6C22F0CB
:103EC00001020A642E4A934216D12A490A6C22F052
:103ED00020020A642B4A934216D102F50832136C71
:103EE00023F0400313647047274A934215D12149B8
:103EF0000A6C22F002020A64244A934215D11D4939
:103F00004A6C22F002024A64214A934215D102F51A
:103F10000732136C23F08003E4E71E4A934215D165
:103F200014490A6C22F004020A641B4A934215D118
:103F300010494A6C22F480324A64184A9342D2D122
:103F400002F50632136C23F48073CBE7144A9342D4
:103F50009FD108490A6C22F008020A64114A934270
:103F60009FD102F57442536C23F4003353647047BD
:103F700000000140003802400010004000480140AD
:103F800000140040001800400004004000040140FC
:103F9000001C00400008004000400140002000409C
:103FA000000C004000440140431C3AD0294B984289
:103FB0003AD018D8A3F54063984237D00BD8A3F570
:103FC0000063984234D003F58063984232D0B0F158
:103FD000804F31D0FEE7204B98422FD003F580630D
:103FE00098422DD0F6E71D4B98422DD00CD8A3F562
:103FF0006443984226D003F56043984226D0A3F547
:104000006443984220D0E5E7154B98421ED003F553
:10401000806398421CD0A3F500639842DAD118203F
:1040200070476FF00D0070472B20704732207047AB
:104030001D2070471E2070471C2070473620704797
:10404000372070472D2070472C207047192070476B
:104050001A20704700180040001000400004014082
:1040600000440140431C3AD02B4B98423AD01CD814
:10407000A3F58053984237D00BD8A3F5006398423C
:1040800034D003F58063984232D0B0F1804F31D004
:10409000FEE7224B98422FD003F5806398422DD043
:1040A000A3F5006398422BD0F2E71D4B984229D02C
:1040B0000CD8A3F58043984226D003F5806398423C
:1040C00024D0A3F56443984222D0E1E7154B9842EF
:1040D00020D003F580639842DAD11A2070476FF040
:1040E0000D0070472C207047322070471D2070470C
:1040F0001E2070471C207047372070472B207047C8
:1041000036207047182070471B2070472E207047BC
:104110002D20704719207047001C004000140040FB
:10412000004001400044014038B5FFF7B1FD0446AE
:104130000068FFF739FFD4E91212FDF7FFFE20688F
:10414000FFF732FFFDF72CFF22681046FFF78AFFCA
:1041500005461046FFF728FF85420BD02846D4E9D4
:104160001212FDF7EBFE2068FFF77CFFBDE8384038
:10417000FDF716BF38BD00002DE9F04F89B00446A9
:104180008A46406D8F499846129B01939146FFF7EE
:1041900023FD8D498346A06DFFF71EFD8B49064622
:1041A000E06DFFF719FD8A490546206EFFF714FD03
:1041B0000746BBF1000F00F00281A26D013202D070
:1041C000002E00F0FC80E26D013202D0002D00F0E4
:1041D000F680226E013202D0002F00F0F0803146CE
:1041E0005846FFF720FD29462060FFF71CFD3946A1
:1041F0002060FFF718FD2060002800F0E080754B7C
:1042000098424FD103F594335A6A42F010025A6231
:104210005A6A22F010025A62002202925A6C42F04C
:1042200010025A645B6C03F010030293029B252377
:10423000A4F864306349606DFFF7B6FC1EB16249B3
:10424000A06DFFF7B1FC2DB16049E06DFFF7ACFC4C
:104250004FF480752FB15E49206E45F40075FFF76D
:10426000A3FC94F865205C4B94F96400C4F80C90AE
:10427000271D43F822702368C4E9013A019B0022FC
:10428000C4E904380C23C4E9063522620121FDF794
:1042900055FE3846002E40F08D8009B0BDE8F04F45
:1042A000FEF782BD4D4B984217D103F5FA331A6AD7
:1042B00042F400321A621A6A22F400321A620022B0
:1042C00003921A6C42F400321A641B6C03F400333C
:1042D0000393039B4FF49373AAE7414B984217D182
:1042E00003F5F8331A6A42F480221A621A6A22F439
:1042F00080221A62002204921A6C42F480221A640C
:104300001B6C03F480230493049B40F227238FE764
:10431000344B984217D103F5F6331A6A42F400225F
:104320001A621A6A22F400221A62002205921A6C9A
:1043300042F400221A641B6C03F400230593059BCE
:104340004FF44D7374E7284B984217D103F5F433BB
:104350001A6A42F480121A621A6A22F480121A62ED
:10436000002206921A6C42F480121A641B6C03F449
:1043700080130693069B40F2354359E71B4B984246
:104380007FF458AF03F592335A6A42F020025A6222
:104390005A6A22F020025A62002207925A6C42F0B6
:1043A00020025A645B6C03F020030793079B40F2E2
:1043B00047533DE709B0BDE8F04FFEF7C6BC09B072
:1043C000BDE8F08FBC5600082C560008E4550008E4
:1043D0009C55000800100140A0A1002000440040AE
:1043E00000480040004C00400050004000140140D4
:1043F00010B4019C20B101945DF8044BFFF7BCBEE2
:104400005DF8044B7047000008B5074B90F8652035
:1044100053F82200FEF7F2FE00F02200A0F1220382
:104420005842584108BD00BFA0A1002008B5074B65
:1044300090F8652053F82200FEF7E0FE00F021001E
:10444000A0F121035842584108BD00BFA0A100209F
:1044500070B50E46054610B94FF0FF3070BDFFF73E
:10446000D3FF04460028F7D12946012211F8663F00
:10447000337095F86500034B53F82000FEF7DDFE1E
:104480002046EBE7A0A1002038B50D460446B8B1A0
:10449000FFF7BAFFA0B994F96400E564FDF78EFD5B
:1044A00094F86500074B04F1660153F820000122DF
:1044B000FEF7C3FE94F96400BDE83840FDF770BD17
:1044C00038BD00BFA0A1002038B515460446B8B1DC
:1044D000016590F96400FDF771FDE36EB4F87610A4
:1044E00094F8650013FA81F1064BAAB253F8200044
:1044F000FEF78DFC94F96400BDE83840FDF750BD2F
:1045000038BD00BFA0A1002048B1836D013306D1A2
:1045100090F86520024B53F82200FEF73FBE70472B
:10452000A0A1002048B1836D013306D190F8652029
:10453000024B53F82200FEF749BE7047A0A10020AD
:10454000836C04381847C36C0438184730B50446E8
:1045500050F804391D6815F0010585B012D000220D
:1045600000921A6800925B680093009BFFF74CFF73
:1045700040BB012204F16201204605B0BDE8304095
:10458000FEF75BBE196811F0020106D001951A68AA
:1045900001925B680193019BE8E71A6812F004023C
:1045A00006D002911A6802925B680293029BDDE7D3
:1045B00019680907DAD503921A6803925B680393B6
:1045C000039BD3E705B030BD08B52520FDF72EFDD0
:1045D000024B1868BDE80840FEF796BCA0A1002079
:1045E00008B52620FDF722FD034B586818B1BDE839
:1045F0000840FEF789BC08BDA0A1002008B527200F
:10460000FDF714FD034B986818B1BDE80840FEF7AC
:104610007BBC08BDA0A1002008B53420FDF706FD35
:10462000024BD868BDE80840FEF76EBCA0A1002090
:1046300008B53520FDF7FAFC024B1869BDE80840C3
:10464000FEF762BCA0A1002008B54720FDF7EEFCF4
:10465000024B5869BDE80840FEF756BCA0A10020F7
:10466000FEE70000024B16221A604FF0FF30704741
:1046700034A400200120704710B594B0142200210A
:1046800009A800F095FC1422002103A800F090FC7A
:1046900000231E4A0193116C41F080511164126C89
:1046A00002F080520192019A194A0293116841F472
:1046B000804111601268022402F480420820CDE992
:1046C0000E430292A823CDE91003029A0894012117
:1046D0001022072308A8CDE90B1212941393FDF7BB
:1046E000F5FE00B1FEE70F23CDE9033405904FF44A
:1046F000A0524FF48053052103A8CDE90623FEF70D
:10470000C1F800B1FEE714B010BD00BF0038024090
:1047100000700040B0F80831B0F80421981A00F099
:104720003F007047B0F80831B0F804219BB29342C3
:104730001ABFD0F8FC30985C4FF0FF30704790F80B
:104740000631B0F80A01C0B2834227BFC3F13F036C
:10475000C018C01A00F1FF30704707B503688DF824
:1047600007105B6801220DF10701984703B05DF85F
:1047700004FB13B50DF107010446FFF769FE88B984
:10478000B4F87430B4F87020013303F03F0393425F
:1047900008D0B4F87420A16E9DF8070092B2885436
:1047A000A4F8743002B010BDB0F87620816F11FA11
:1047B00082F202F03F0210B5A0F87620B0F8761031
:1047C000B0F8722089B28A421AD0B0F87640B0F8B8
:1047D0007610A4B24032121B544289B204F03F0456
:1047E00002F03F02C1F1400158BF62428A4228BF35
:1047F0000A4682670349FFF767FE4FF0FF3010BD9E
:104800000020FCE7A94700082DE9F84303680446A7
:104810009B6888461646984701232374D4F8EC30E9
:10482000B4F8067101338146C7F1400709D194F805
:10483000103133B1002384F8103104F19400FFF7F4
:1048400063FE236820469B6898470028F9D03546C8
:10485000AF4225D34D4523D8B4F80631D4F8000132
:104860005A19402A184430D82A46414600F022FC02
:104870002F46B4F806311D4405F03F05A4F8065153
:1048800004F194052846FFF7D1FD30B91649C4F864
:104890000C713A462846FFF717FE3046BDE8F8830C
:1048A0004F45236828BF4F463A4641465B6820463D
:1048B0009847236820469B689847ED1BB844B4F896
:1048C00006718146C7F14007C2E7C3F140073A4687
:1048D000414600F0EFFBD4F80001EA1B08EB0701AA
:1048E00000F0E8FBC5E700BFA9470008C0F8F030BA
:1048F000009BC0F8F430914208BF4FF0FF3100F147
:104900001103C0E93A21C0F8FC3000F15102002344
:10491000A0F80831C0E94023A0F80A317047037CB1
:1049200070B504460D46A3B1FDF7F0FA0646B4F89B
:104930000621B4F80A319BB29A420AD0002DF8D071
:10494000FDF7E4FA801B8542F1D8B4F80A31A4F8E7
:10495000063170BD0021FFF7E2BF0000CBB2512B42
:1049600008D80E4A52F8233001F4E0611943C0F828
:10497000EC10704701F0C002C02A0CD1CF2B0AD82E
:10498000074B01F03F0201F4E06153F82220034B92
:1049900053F82230EAE74FF0FF31E8E7EC5A00081D
:1049A000AC5A0008CBB2512B08D80E4A52F823302B
:1049B00001F4E0611943C0F8E810704701F0C0024B
:1049C000C02A0CD1CF2B0AD8074B01F03F0201F4CB
:1049D000E06153F82220034B53F82230EAE74FF00E
:1049E000FF31E8E7EC5A0008AC5A000873B54FF401
:1049F0007A7316460022C0E901231D4B03604FF075
:104A0000FF33C0F8EC301B4B984204460D4615D1DD
:104A1000C121FFF7A3FFC021FFF7C4FF012E4FF014
:104A2000FF3308BFC4F8EC3000932046D4E93A21A4
:104A30004FF0FF33FFF75AFF02B070BD0E4B0F4926
:104A40001A680F4B53F82200FFF7C6F8854202D1CF
:104A5000C1212046DDE70B492846FFF7CEF807497C
:104A6000C4F8EC002846FFF7C8F8C4F8E800D5E71A
:104A7000445C0008B8A10020AC5A0008BC560008ED
:104A8000EC5A00082C560008D0F8EC30013310B571
:104A900004460ED10368DB68984794F8103143B997
:104AA000012384F8103104F19400BDE81040FFF7B1
:104AB00039BD10BD02F00703023BDBB2042B73B516
:104AC000144680F8112198BF1B4AC0F8141198BFF2
:104AD000D25C04F0300388BF0022302B054607D19A
:104AE00001324FF4C063082A09D0092A1BD0FEE71F
:104AF00014F020031CD001324FF48063F3E700224E
:104B0000C4F3C00405F19406640330460094FFF733
:104B10006FFC2846FFF7B8FF0849304602B0BDE8F1
:104B20007040FFF7B1BC4FF48052E9E71A46E7E75F
:104B3000082AFBD0DBE700BF345C0008734700089D
:104B400010B50446FFF7A0FFB4F80821B4F804310B
:104B500092B29A421FBFD4F8FC20D05C013303F01C
:104B60003F0314BFA4F804314FF0FF3010BD000024
:104B7000024903480022FFF739BF00BF004C004044
:104B8000B8A1002070B505460C46084649B1FBF7B0
:104B900009FB2B680246214628465B68BDE8704049
:104BA000184770BD08B50249FFF7ECFF08BD00BF0C
:104BB0004055000838B50546FFF7E4FF044628468F
:104BC000FFF7F0FF204438BDFFF7F4BF10B50446EF
:104BD00000F01AF9E060236820465B6998470028D6
:104BE00008DA00F011F9E368C01AA3689842F2D31A
:104BF0004FF0FF3010BDF8B507460D468E180C4635
:104C0000B44201D1601BF8BD3846FFF7DFFF031E39
:104C1000F8DB04F8013BF3E72DE9F041074688464D
:104C200016461D4673B100243846FFF7CFFF031E1A
:104C300005DB434503D033550134A542F4D120466A
:104C4000BDE8F0811C46FAE708B50320FDF764F9DA
:104C5000BDE8084000F0F6B808B5AFF30080FBF7F8
:104C6000E3FAFBF73DFB00F0DFF8FAE7DFF834D0BA
:104C7000FEF7E4FF0C480D490D4A002302E0D4582A
:104C8000C4500433C4188C42F9D30A4A0A4C002396
:104C900001E013600432A242FBD300F0E7F9FFF712
:104CA000DBFF704700000220000000209000002081
:104CB000905C00089000002038A40020FEE700006F
:104CC000C3B2512B2DE9F0410D462AD82C4A52F897
:104CD000233000F4E0641C43621C4ED0294EC4F320
:104CE000031704F00F0856F8273023FA08F3DB0700
:104CF00010D525492046FEF7BAFE18B32046FEF728
:104D00003BFD56F82730012202FA08F223EA02039B
:104D100046F82730052D1FD8DFE805F01F2B252783
:104D2000292D00F0C002C02A27D1CF2B25D8174B40
:104D300000F03F0200F4E06453F82220104B53F8D7
:104D40002230C8E712492046FEF791FE0028D8D04D
:104D50002046FEF72BFDD4E7FEE700212046BDE804
:104D6000F041FEF793BE1021F8E72021F6E703217A
:104D7000F4E70121F2E70921F0E7BDE8F08100BF87
:104D8000EC5A0008D0A20020885A0008AC5A00084B
:104D90004C570008C3B2512B17D8174A52F823308A
:104DA00000F4E0601843C0F30313082B98BF134AC4
:104DB00000F00F0098BF52F82320114B88BF00224B
:104DC00053F82030A9B19361704700F0C002C02AA7
:104DD0000CD1CF2B0AD80B4B00F03F0200F4E0605F
:104DE00053F82220044B53F82230DBE74FF0FF301A
:104DF000D9E71B04E7E700BFEC5A000810000020C9
:104E000044550008AC5A0008FEF7FEBC38B504460D
:104E100048B1FEF7F9FC054600F016F8FEF7F4FC81
:104E2000431BA342F8D338BD08B5044B2BB104484B
:104E3000FFF770FC08B1AFF3008008BD0000000070
:104E4000B8A10020FEF730BD70470000024B0146BC
:104E5000186800F02DB800BF40000020024B01464A
:104E6000186800F035B900BF4000002070B50F4E43
:104E70000C463168054611B9FCF700FE306021464A
:104E80002846FCF7FBFD431C03D14FF0FF342046BE
:104E900070BDC41C24F00304A042F8D0211A284697
:104EA000FCF7ECFD0130F2D1EFE700BFF4A20020E7
:104EB0002DE9F843CD1C25F0030508350C2D38BF2E
:104EC0000C25002D064601DBA94204D90C233360D2
:104ED0000020BDE8F883DFF8D480FCF70DFED8F899
:104EE00000301C4644BB29463046FFF7BFFF431C39
:104EF000044658D1D8F800402746002F43D1002C53
:104F00004BD023683946304604EB0309FCF7B6FD65
:104F1000814542D121686D1A29463046FFF7A6FF28
:104F200001303AD023682B442360D8F800305A6807
:104F300062BBC8F800700FE02268521B20D40B2A15
:104F400017D96119A342256018BF5960636808BF6B
:104F5000C8F8001062514B603046FCF7DBFD04F1ED
:104F60000B00231D20F00700C21A1CBF1B1AA35000
:104F7000AFE76268A3420CBFC8F800205A60EBE7B5
:104F800023466468AEE73C467F68B6E71A465B682E
:104F9000A342FBD100235360DEE70C23336030468D
:104FA000FCF7B8FD94E70560D6E700BFF8A2002043
:104FB00002440346934200D1704703F8011BF9E70E
:104FC000294B1B68834270B504464BD0C369ABB113
:104FD000DB686BB10025E369DB68595900293BD1D7
:104FE0000435802DF7D1E3692046D96800F070F8C8
:104FF000E369196811B1204600F06AF8616911B1DE
:10500000204600F065F8E16911B1204600F060F833
:10501000216B11B1204600F05BF8616B11B12046A5
:1050200000F056F8A16B11B1204600F051F8A16CC8
:1050300011B1204600F04CF8616C11B1204600F02F
:1050400047F8E16A11B1204600F042F8236A4BB1FB
:105050002046BDE8704018470E68204600F038F83A
:105060003146BBE770BD00BF4000002070B50D4D5C
:105070000D4C641BA4100026A64209D10B4D0C4C0C
:1050800000F01EFA641BA4100026A64205D170BDD4
:1050900055F8043B98470136EEE755F8043B98472E
:1050A0000136F2E7705C0008705C0008705C000874
:1050B000845C00080A44914200F1FF3300D170473C
:1050C00010B511F8014B03F8014F9142F9D110BD11
:1050D00038B50546002941D051F8043C0C1F002B7F
:1050E000B8BFE418FCF708FD1D4A136833B96360C4
:1050F00014602846BDE83840FCF70CBDA34208D92F
:10510000206821188B4201BF19685B68091821606B
:10511000EDE71A465B680BB1A342FAD91168501843
:10512000A0420BD120680144501883421160E0D1A5
:1051300018685B68536008441060DAE702D90C23F2
:105140002B60D6E7206821188B4204BF19685B6882
:10515000636004BF091821605460CAE738BD00BF0E
:10516000F8A2002008B5062000F02CF80120FFF777
:1051700077FA1F2938B505460C4604D91623036073
:105180004FF0FF3038BDC26B12B152F821304BB92D
:10519000284600F031F8224601462846BDE838404E
:1051A00000F018B8012B0AD0591C03D11623036054
:1051B0000120E7E7002142F824102046984700200C
:1051C000E0E70000024B01461868FFF7D2BF00BFBE
:1051D0004000002038B5074D00230446084611461C
:1051E0002B60FFF73FFA431C02D12B6803B1236009
:1051F00038BD00BF34A40020FFF73CBA2DE9F047CA
:10520000089D0E4604460F46002B4AD194468C4515
:10521000B2FA82F260D942B1C2F12003974020FA7B
:1052200003F30CFA02FC1F4394404FEA1C4E1FFA92
:105230008CF6B7FBFEF1230C0EFB117743EA074314
:1052400001FB06F098420AD91CEB030301F1FF377A
:1052500080F01581984240F21281023963441B1A92
:10526000A4B2B3FBFEF00EFB103344EA034400FB90
:1052700006F6A6420AD91CEB040400F1FF3380F0C5
:105280000081A64240F2FD806444023840EA0140B9
:10529000A41B00211DB1D4400023C5E90043BDE893
:1052A000F0878B4205D90DB1C5E900010021084600
:1052B000F5E7B3FA83F1002946D1B34202D3824223
:1052C00000F2F580841A66EB030201201746002DD8
:1052D000E5D0C5E90047E2E7002A40F09380A1EB62
:1052E0000C034FEA1C471FFA8CFE0121B3FBF7F6B3
:1052F00007FB1630230C43EA00430EFB06F09842EE
:1053000008D91CEB030306F1FF3802D2984200F2E1
:10531000D08046461B1AA4B2B3FBF7F007FB10334C
:1053200044EA03440EFB00FEA64508D91CEB040426
:1053300000F1FF3302D2A64500F2B6801846A4EB76
:105340000E0440EA0640A5E7C1F120078B4022FA8F
:1053500007FC4CEA030C06FA01FE20FA07F426FAD1
:1053600007F344EA0E0400FA01F84FEA1C404FEA42
:105370001449B3FBF0FE1FFA8CF600FB1E3349EA1A
:1053800003430EFB06F9994502FA01F20BD91CEB17
:1053900003030EF1FF3A80F08580994540F2828048
:1053A000AEF1020E6344A3EB0909A4B2B9FBF0F31A
:1053B00000FB139944EA094403FB06F6A64208D908
:1053C0001CEB040403F1FF3068D2A64266D9023B0D
:1053D000644443EA0E40A41BA0FB02E6B4427346B9
:1053E000B14652D34FD05DB1B8EB030264EB090470
:1053F00004FA07F722FA01F31F43CC40C5E9007411
:1054000000214CE7C2F1200120FA01F30CFA02FC62
:1054100026FA01F1964033434FEA1C471FFA8CFEEF
:10542000B1FBF7F007FB1016190C41EA064100FB2F
:105430000EF68E4204FA02F408D91CEB010100F1C9
:10544000FF382DD28E422BD902386144891B9BB282
:10545000B1FBF7F607FB161143EA014306FB0EF119
:10546000994208D91CEB030306F1FF3814D2994284
:1054700012D9023E63445B1A46EA004136E73946D8
:10548000EDE6184602E7F045ADD2BEEB020366EB4F
:105490000C060138B146A6E74646ECE7034698E716
:1054A0004046D3E7D6467EE76444023847E70846DD
:1054B0000DE7023E63442DE708B5FFF753FE0000F9
:1054C000F8B500BFF8BC08BC9E467047F8B500BFF1
:0854D000F8BC08BC9E467047C1
:1054D8004F54415F535441525400005461736B5F01
:1054E800464F5441004A554D5020544F204150508A
:1054F8004C49434154494F4E004F544120454E5466
:105508004552004F54415F53544152540043524353
:105518005F4F4B004352435F454E44004352435F45
:105528004552524F520049444C4500546D72510047
:10553800546D7220537663000D0A000001000000CC
:105548000200000004000000080000001000000035
:105558002000000040000000800000000001000062
:105568000002000000040000000800000010000015
:105578000020000000400000008000000000000043
:1055880001020304000000000000000001020304FF
:105598000607080900000000004400401207000048
:1055A8000B00000000100140120700001D00000061
:1055B800004800401207000033000000004400408B
:1055C800120700003B0000000048004012070000DE
:1055D800FFFFFFFF000000000000000001000000C6
:1055E80000440040120700000C00000000100140B9
:1055F800120700001E0000000048004012070000CB
:105608003400000000440040120700003C00000085
:105618000048004012070000FFFFFFFF00000000E5
:105628000000000001000000004C004012080000CB
:105638000300000000440040120700000A000000B8
:105648000010014012070000170000000010014080
:10565800120700001B00000000480040120700006D
:105668002700000000140140120800002B00000071
:10567800004C0040120800002B01000000480040C8
:10568800120700003200000000500040120800001D
:1056980036000000004400401207000039000000F6
:1056A8000048004012070000FFFFFFFF0000000055
:1056B8000000000000000000004C0040120800003C
:1056C800020000000044004012070000090000002A
:1056D80000100140120700001600000000100140F1
:1056E800120700001A0000000048004012070000DE
:1056F8002600000000140140120800002A000000E3
:10570800004C0040120800002A0100000048004038
:10571800120700002C000000005000401208000092
:105728003500000000440040120700003800000067
:105738000048004012070000FFFFFFFF00000000C4
:10574800000000000000000000000040128100007E
:1057580000010000000C004012820000010000005F
:10576800000000401201010001010000000C00408F
:105778001202010002000000000000401281010036
:1057880002010000000C0040128201000202000029
:1057980000400140128300000300000000000040A8
:1057A8001201020003010000000C00401202020076
:1057B8000302000000400140120301000500000040
:1057C80000000040128100000501000000040140B3
:1057D800128310000600000000040040128200003E
:1057E80006010000001C00401289000007000000AC
:1057F8000000014012811000070100000004004071
:105808001202010007020000000401401283100088
:105818000703000000200040128900000800000073
:105828000000014012810000090000000000014052
:10583800120101000A00000000000140128101006D
:105848000B00000000000140120102000F000000E0
:10585800000000401281000010000000000001401C
:105868001201110010010000000400401282010022
:105878001002000000040140120311001100000092
:1058880000000140128111001101000000040040D5
:1058980012020200110200000004014012831100EC
:1058A8001300000000000040120101001400000075
:1058B80000040040128200001500000000040040AF
:1058C80012020100160000000008004012820000C9
:1058D8001700000000080040120201001800000034
:1058E8000008004012820100180100000044014035
:1058F8001283000019000000000800401202020094
:105908001901000000480140128300001A0000003D
:1059180000000040128101001B0000000000004050
:10592800120102001D000000000001401281100059
:105938001E00000000000140120111001E010000BD
:1059480000040140120311001E020000001800406C
:10595800128900001F0000000000014012811100A0
:105968001F01000000040140128311001F02000003
:105978000018004012090100260000000004004041
:10598800128200002601000000040140128300007A
:105998002700000000040040120201002701000057
:1059A8000004014012030100280000000004004028
:1059B8001282010028010000000401401283010046
:1059C8002900000000040040120202002901000022
:1059D80000040140120302003C00000000080040DF
:1059E800128200003D000000000800401202010081
:1059F8003E00000000080040128201003F00000045
:105A0800000800401202020045000000004001406A
:105A1800128300004600000000400140120301000C
:105A280048000000000001401281100049000000F9
:105A380000000140128100004A00000000000140FF
:105A4800120111004B00000000000140120101008A
:105A58004C00000000000140128111004D000000C0
:105A680000000140128101004E00000000000140CA
:105A780012010200FFFFFFFF00000000000000000D
:105A880004000000007400400380000005000000CE
:105A98000074004003000100FFFFFFFF000000004A
:105AA80000000000000000000100000002000000EB
:105AB80003000000040000000500000006000000CC
:105AC8000700000010000000110000002000000086
