:020000040800F2
:1000000000000220CD100008411000084710000831
:100010004D1000085310000859100008000000009F
:100020000000000000000000000000005F10000859
:100030006D100008000000007B1000088910000807
:100040001D1100081D1100081D1100081D110008D8
:100050001D1100081D1100081D1100081D110008C8
:100060001D1100081D1100081D1100081D110008B8
:100070001D1100081D1100081D1100081D110008A8
:100080001D1100081D1100081D1100081D11000898
:100090001D1100081D1100081D1100081D11000888
:1000A0001D1100081D1100081D1100081D11000878
:1000B0001D1100081D1100081D1100081D11000868
:1000C0001D1100081D1100081D1100081D11000858
:1000D0001D1100081D110008951000081D110008D1
:1000E0001D1100081D1100081D1100081D11000838
:1000F0001D1100081D1100081D1100081D11000828
:100100001D1100081D1100081D1100081D11000817
:100110001D1100081D1100081D1100081D11000807
:100120001D1100081D1100081D1100081D110008F7
:100130001D1100081D1100081D1100081D110008E7
:100140001D1100081D1100081D1100081D110008D7
:100150001D1100081D1100081D1100081D110008C7
:100160001D1100081D1100081D1100081D110008B7
:100170001D1100081D1100081D11000800000000DD
:080180001D1100081D1100080B
:1001880010B5054C237833B9044B13B10448AFF3C9
:1001980000800123237010BD0C0000200000000027
:1001A8007838000808B5034B1BB103490348AFF37F
:1001B800008008BD0000000010000020783800080A
:1001C80010F8012B11F8013B012A28BF9A42F7D0F9
:1001D800D01A7047034613F8012B002AFBD1181ACE
:1001E8000138704753B94AB9002908BF00281CBF15
:1001F8004FF0FF314FF0FF3000F074B9ADF1080C4B
:100208006DE904CE00F006F8DDF804E0DDE902232C
:1002180004B070472DE9F047089D04468E46002B30
:100228004DD18A42944669D9B2FA82F252B101FAA2
:1002380002F3C2F1200120FA01F10CFA02FC41EAB2
:10024800030E94404FEA1C48210CBEFBF8F61FFA37
:100258008CF708FB16E341EA034306FB07F19942D2
:100268000AD91CEB030306F1FF3080F01F81994285
:1002780040F21C81023E63445B1AA4B2B3FBF8F05F
:1002880008FB103344EA034400FB07F7A7420AD9E6
:100298001CEB040400F1FF3380F00A81A74240F20E
:1002A80007816444023840EA0640E41B00261DB179
:1002B800D4400023C5E900433146BDE8F0878B42AE
:1002C80009D9002D00F0EF800026C5E9000130466D
:1002D8003146BDE8F087B3FA83F6002E4AD18B4247
:1002E80002D3824200F2F980841A61EB03030120F1
:1002F8009E46002DE0D0C5E9004EDDE702B9FFDEDD
:10030800B2FA82F2002A40F09280A1EB0C014FEA87
:100318001C471FFA8CFE0126200CB1FBF7F307FBE4
:10032800131140EA01410EFB03F0884208D91CEB87
:10033800010103F1FF3802D2884200F2CB80434624
:10034800091AA4B2B1FBF7F007FB101144EA014403
:100358000EFB00FEA64508D91CEB040400F1FF3192
:1003680002D2A64500F2BB800846A4EB0E0440EA80
:1003780003409CE7C6F12007B34022FA07FC4CEA89
:10038800030C20FA07F401FA06F31C43F9404FEA7C
:100398001C4900FA06F3B1FBF9F8200C1FFA8CFE91
:1003A80009FB181140EA014108FB0EF0884202FAE5
:1003B80006F20BD91CEB010108F1FF3A80F08880A6
:1003C800884240F28580A8F102086144091AA4B263
:1003D800B1FBF9F009FB101144EA014100FB0EFEE4
:1003E8008E4508D91CEB010100F1FF346CD28E4513
:1003F8006AD90238614440EA0840A0FB0294A1EBA4
:100408000E01A142C846A64656D353D05DB1B3EB00
:10041800080261EB0E0101FA07F722FA06F3F14030
:100428001F43C5E9007100263146BDE8F087C2F1D7
:100438002003D8400CFA02FC21FA03F3914001434F
:100448004FEA1C471FFA8CFEB3FBF7F007FB103688
:100458000B0C43EA064300FB0EF69E4204FA02F434
:1004680008D91CEB030300F1FF382FD29E422DD987
:10047800023863449B1B89B2B3FBF7F607FB1633BC
:1004880041EA034106FB0EF38B4208D91CEB01013C
:1004980006F1FF3816D28B4214D9023E6144C91ABC
:1004A80046EA004638E72E46284605E70646E3E6CC
:1004B8001846F8E64B45A9D2B9EB020864EB0C0ED6
:1004C8000138A3E74646EAE7204694E74046D1E7E5
:1004D800D0467BE7023B614432E7304609E7644493
:1004E800023842E7704700BF80B485B000AF78603B
:1004F8000023FB607B68444A934206D87B68B3F1CB
:10050800006F02D30023FB6077E07B683F4A934289
:1005180006D87B683E4A934202D30123FB606CE015
:100528007B683C4A934206D87B683B4A934202D395
:100538000223FB6061E07B68384A934206D27B68FD
:10054800374A934202D30323FB6056E07B68354A5F
:10055800934206D27B68314A934202D90423FB6056
:100568004BE07B68304A934206D27B682D4A93421F
:1005780002D90523FB6040E07B682C4A934206D2EF
:100588007B68294A934202D90623FB6035E07B68E1
:10059800274A934206D27B68244A934202D907230A
:1005A800FB602AE07B68234A934206D27B68204A94
:1005B800934202D90823FB601FE07B681E4A9342DE
:1005C80006D27B681B4A934202D90923FB6014E0D8
:1005D8007B681A4A934206D87B68174A934202D925
:1005E8000A23FB6009E07B68154A934205D87B68BB
:1005F800144A934201D90B23FB60FB681846143751
:10060800BD465DF8047B7047FE3F0008FE7F00088A
:1006180000400008FEBF000800800008FFFF000837
:1006280000C00008FFFF0108FFFF0308FFFF0508DF
:10063800FFFF0708FFFF0908FFFF0B08FEFF0D0873
:10064800FEFF0F08FFFF0D08B0B58AB000AFF860D5
:10065800B9601346FB8000237B6200F0C7FFF8688F
:10066800FFF742FF3862FB681B68B3F1FF3F41D0D8
:10067800FB889B001A46FB681344FB61F869FFF787
:1006880033FFB861214B00221A60204B02221A6105
:100698001E4A3B6A9360BA693B6AD31A01331B4A04
:1006A800D36007F114031946184801F00DF9034601
:1006B800002B1FD000F0CCFF034622E07B6A9B0092
:1006C800BA6813441B6800221C46154622462B466E
:1006D800F968022000F036FF0346002B06D1FB68BC
:1006E8000433FB607B6A01337B6203E000F0B0FFF8
:1006F800034606E0FB887A6A9A42DFDB00F098FF3F
:10070800002318462837BD46B0BD00BF280000208A
:1007180080B485B000AFF860B9601346FB8009E08B
:10072800FB681A68BB681A60FB680433FB60BB6827
:100738000433BB60FB885A1EFA80002BF0D100BF3F
:1007480000BF1437BD465DF8047B704780B400AF26
:10075800BFF34F8F00BF064BDB6803F4E062044928
:10076800044B1343CB60BFF34F8F00BF00BFFDE7BF
:1007780000ED00E00400FA0580B586B000AF274B15
:100788001B88013B1A46264B1A600122244925483A
:10079800FFF75AFF0023FB6007F10C0301221946FB
:1007A8002148FFF7B5FF214B7B6100233B6125E022
:1007B8001F4A3B699B001344DB781A061C493B69B6
:1007C8009B000B449B781B041A4319493B699B0007
:1007D8000B445B781B02134315493A6911F8222030
:1007E80013437B603B1D012219467869FFF72CFFF4
:1007F8007B6904337B613B6901333B613B6941F2AF
:10080800C5629342D4DD0123BB6007F108030122CE
:1008180019460548FFF718FFFFF798FF625B0020AD
:100828003C00002000C00008008000080000040808
:100838004400002080B588B000AF78607B68FB6119
:10084800224BBB6100233B610023FB6007F10C03D3
:10085800012219461E48FFF75BFF07F1100301222A
:100868001946F869FFF754FF00237B6116E007F18A
:10087800100301221946B869FFF7E6FEFB69043345
:10088800FB61BB690433BB6107F110030122194600
:10089800F869FFF73DFF7B6901337B61FB687A6983
:1008A8009A42E4D30023BB6007F1080301221946EA
:1008B8000848FFF7C9FE07F1080301221946044852
:1008C800FFF7C2FE00BF2037BD4680BD000002080A
:1008D80000C000080080000880B584B000AF7860D0
:1008E8007B681B68BB60BB6883F3088800BF064A47
:1008F8007B6893607B6804331B68FB60FB689847E0
:1009080000BF1037BD4680BD00ED00E080B485B063
:1009180000AF78600B467B804FF6FF73FB810023A6
:10092800BB8127E0BB897A6813441B781B021AB283
:10093800B7F90E3053401BB2FB810023FB7213E062
:10094800B7F90E30002B09DAFB895B001BB283F480
:10095800815383F001031BB2FB8102E0FB895B003A
:10096800FB81FB7A0133FB72FB7A072BE8D9BB8941
:100978000133BB81BA897B889A42D3D3FB89184655
:100988001437BD465DF8047B7047000080B400AFA3
:10099800BFF34F8F00BF064BDB6803F4E0620449E6
:1009A800044B1343CB60BFF34F8F00BF00BFFDE77D
:1009B80000ED00E00400FA0590B585B000AF78605E
:1009C8007B681B688D4A934240F014818C4B1B78DE
:1009D800002B34D18B4B1B780D2B03D0894B1B7804
:1009E8000A2B1ED1884B1B881A46884B0021995424
:1009F80087498648FFF7E4FB0346002B05D100F042
:100A080019F97F4B01221A7002E07D4B00221A70FF
:100A18007D4B00221A801E2200217C4802F020FF14
:100A2800E3E0794B1B881A46764B1978774B995433
:100A3800754B1B8801339AB2734B1A80D5E0704B03
:100A48001B78012B5AD1734B1B881C46724B1B8891
:100A58005A1C91B2704A118018466A4B19786F4A2D
:100A6800A300134403440A461A706B4B1B88042BDB
:100A780025D1684B1B881A46684B13F82230232B64
:100A88001DD1644B1B88654A9B0013445B78232B5C
:100A980015D1604B1B88614A9B0013449B78232B1C
:100AA8000DD15C4B1B885D4A9B001344DB78232BDC
:100AB80005D15B4B01221A70514B05221A70564B17
:100AC8001B88032B40F29180534B00221A80514B14
:100AD8001B8801339AB24F4B1A804E4B1B88514AE0
:100AE800A2FB03125209642101FB02F29B1A9BB27A
:100AF800002B7AD1424B05221A7076E0404B1B78C6
:100B0800052B72D1484B1B785A1CD1B2464A11703A
:100B18001A463C4B1978454B9954434B1B78022B8A
:100B280063D1424B1B781B021AB2404B5B781BB255
:100B380013431BB2BB813A4B1B7883F00103DBB232
:100B4800002B0DD0334B1B88643B9B00334A134466
:100B58004FF4C8711846FFF7D9FE0346FB811FE022
:100B68002C4B1B88013B2F4A82FB03125111DA17C9
:100B78008A1A642101FB02F29A1A13467B81254BDB
:100B88001B885A1E7B89D31A9B00244A1A447B89E6
:100B98009B009BB219461046FFF7B8FE0346FB813F
:100BA800BA89FB899A4214D100F07CF81C4B1B7857
:100BB80083F00103DBB2002B03D0114B01221A7022
:100BC8000BE000F053F80E4B02221A70FFF7D4FD29
:100BD80003E000F087F8FFF7D9FE134B00221A70E4
:100BE80002220021114802F03BFE0122054910486B
:100BF80001F079FE00BF1437BD4690BD00440040A7
:100C0800865B002040000020645B0020685B0020B9
:100C180090380008625B0020605B002044000020E0
:100C28008B5B00201F85EB518A5B0020885B0020CE
:100C38008C5B002080B584B000AF0A4A3B1D07CA10
:100C480003C31A803B1D1846FFF7C4FA03469AB23D
:100C5800391D6423044801F0B4FD00BF1037BD46B8
:100C680080BD00BF903800088C5B002080B582B042
:100C780000AF0A4A3B4692E8030083E803003B467C
:100C88001846FFF7A7FA03469AB239466423044880
:100C980001F097FD00BF0837BD4680BD9C380008AD
:100CA8008C5B002080B582B000AF0C4A3B4692E8CE
:100CB800030018600433198002330A0C1A703B468B
:100CC8001846FFF787FA03469AB239466423044860
:100CD80001F077FD00BF0837BD4680BDA438000885
:100CE8008C5B002080B584B000AF0A4A3B1D07CA60
:100CF80003C31A803B1D1846FFF76CFA03469AB2E5
:100D0800391D6423044801F05CFD00BF1037BD465F
:100D180080BD00BFAC3800088C5B002080B584B073
:100D280000AF00F0F9F900F04DF800F0D3F800F04A
:100D3800A7F80023FB6007F10C03012219461A48A3
:100D4800FFF7E6FCFB68012B06D11848FFF772FD98
:100D58001748FFF7C1FD20E0FB68022B06D11548B4
:100D6800FFF768FD1248FFF7B7FD16E0FB680A2B8E
:100D780010D1114A3B4607CA03C31A803B4618469E
:100D8800FFF728FA03469AB2394664230B4801F064
:100D980018FD02E00648FFF79FFD012208490748B1
:100DA80001F0A1FDFEE700BF008000080000040874
:100DB8000000020800000608B83800088C5B002014
:100DC8004000002080B594B000AF07F12003302226
:100DD8000021184602F044FD07F10C0300221A60B6
:100DE8005A609A60DA601A610023BB60224B1B6C60
:100DF800214A43F0805313641F4B1B6C03F080534C
:100E0800BB60BB6800237B601C4B1B681B4A43F418
:100E180080431360194B1B6803F480437B607B6835
:100E280002233B620123FB6210233B630023BB6365
:100E380007F12003184601F01FF80346002B01D0E4
:100E480000F07CF80F23FB6000233B6100237B61EB
:100E58000023BB610023FB6107F10C030021184646
:100E680001F082FA0346002B01D000F067F800BFBA
:100E78005037BD4680BD00BF0038024000700040BA
:100E880080B500AF114B124A1A60104B4FF4E13293
:100E98005A600E4B00229A600C4B0022DA600B4B12
:100EA80000221A61094B0C225A61084B00229A61F0
:100EB800064B0022DA61054801F036FC0346002B98
:100EC80001D000F03BF800BF80BD00BF8C5B002064
:100ED8000044004080B586B000AF3B1D00221A6078
:100EE8005A609A60DA601A6100233B60114B1B6BF1
:100EF800104A43F0080313630E4B1B6B03F00803FF
:100F08003B603B6800224FF440410B4800F09AFFD9
:100F18004FF440437B600123BB600023FB60002348
:100F28003B613B1D1946044800F0F0FD00BF18372F
:100F3800BD4680BD00380240000C024080B400AFBE
:100F480072B600BFFEE7000080B483B000AF002394
:100F58007B60104B5B6C0F4A43F4804353640D4B2A
:100F68005B6C03F480437B607B6800233B60094B28
:100F78001B6C084A43F080531364064B1B6C03F048
:100F880080533B603B6800BF0C37BD465DF8047B6F
:100F9800704700BF0038024080B58AB000AF786063
:100FA80007F1140300221A605A609A60DA601A6125
:100FB8007B681B681D4A934233D100233B611C4B5D
:100FC8001B6C1B4A43F400331364194B1B6C03F46A
:100FD80000333B613B690023FB60154B1B6B144AD4
:100FE80043F008031363124B1B6B03F00803FB6009
:100FF800FB6860237B610223BB610023FB61032341
:101008003B6207237B6207F114031946094800F085
:101018007DFD00220021262000F0CBF9262000F0DB
:10102800E4F900BF2837BD4680BD00BF004400403A
:1010380000380240000C024080B400AFFEE780B4E4
:1010480000AFFEE780B400AFFEE780B400AFFEE774
:1010580080B400AFFEE780B400AF00BFBD465DF8C6
:10106800047B704780B400AF00BFBD465DF8047BC9
:10107800704780B400AF00BFBD465DF8047B704781
:1010880080B500AF00F09AF800BF80BD80B500AF12
:10109800024801F059FC00BF80BD00BF8C5B0020F6
:1010A80080B400AF064BD3F88830054A43F4700388
:1010B800C2F8883000BFBD465DF8047B704700BFAA
:1010C80000ED00E0DFF834D00D480E490E4A002349
:1010D80002E0D458C4500433C4188C42F9D30B4AE4
:1010E8000B4C002301E013600432A242FBD3FFF74C
:1010F800D7FF02F091FBFFF711FE704700000220B6
:10110800000000200C000020EC3800080C00002033
:10111800F45B0020FEE7000080B500AF0E4B1B68B3
:101128000D4A43F4007313600B4B1B680A4A43F4DF
:1011380080631360084B1B68074A43F4807313608D
:10114800032000F02BF90F2000F008F8FFF7FCFE51
:101158000023184680BD00BF003C024080B582B025
:1011680000AF7860124B1A68124B1B7819464FF47F
:101178007A73B3FBF1F3B2FBF3F3184600F043F9CB
:101188000346002B01D001230EE07B680F2B0AD801
:10119800002279684FF0FF3000F00BF9064A7B68AF
:1011A8001360002300E0012318460837BD4680BDC0
:1011B80000000020080000200400002080B400AFD8
:1011C800064B1B781A46064B1B681344044A1360E7
:1011D80000BFBD465DF8047B704700BF08000020D3
:1011E800D05B002080B400AF034B1B681846BD4697
:1011F8005DF8047B704700BFD05B002080B485B0E9
:1012080000AF78607B6803F00703FB600C4BDB687A
:10121800BB60BA684FF6FF031340BB60FB681A0255
:10122800BB68134343F0BF6343F40033BB60044A15
:10123800BB68D36000BF1437BD465DF8047B7047B8
:1012480000ED00E080B400AF044BDB681B0A03F03C
:1012580007031846BD465DF8047B704700ED00E0C3
:1012680080B483B000AF0346FB7197F90730002BB9
:101278000BDBFB7903F01F02074997F907305B097D
:10128800012000FA02F241F8232000BF0C37BD46C6
:101298005DF8047B704700BF00E100E080B483B0D4
:1012A80000AF03463960FB7197F90730002B0ADB62
:1012B8003B68DAB20C4997F907301201D2B20B44F5
:1012C80083F800230AE03B68DAB20849FB7903F0A7
:1012D8000F03043B1201D2B20B441A7600BF0C373D
:1012E800BD465DF8047B704700E100E000ED00E0DA
:1012F80080B489B000AFF860B9607A60FB6803F029
:101308000703FB61FB69C3F10703042B28BF042310
:10131800BB61FB690433062B02D9FB69033B00E080
:1013280000237B614FF0FF32BB6902FA03F3DA4313
:10133800BB681A407B699A404FF0FF317B6901FA1C
:1013480003F3D9437B680B40134318462437BD4643
:101358005DF8047B7047000080B582B000AF78600C
:101368007B68013BB3F1807F01D301230FE00A4A78
:101378007B68013B53600F214FF0FF30FFF78EFF72
:10138800054B00229A60044B07221A600023184676
:101398000837BD4680BD00BF10E000E080B582B0D0
:1013A80000AF78607868FFF729FF00BF0837BD46AF
:1013B80080BD80B586B000AF0346B9607A60FB7324
:1013C80000237B61FFF73EFF78617A68B968786926
:1013D800FFF78EFF024697F90F3011461846FFF7C0
:1013E8005DFF00BF1837BD4680BD80B582B000AF35
:1013F8000346FB7197F907301846FFF731FF00BF26
:101408000837BD4680BD80B582B000AF7860786887
:10141800FFF7A2FF034618460837BD4680BD80B5D2
:1014280084B000AF78607B689B6DFB60FFF7DAFEE5
:10143800B8607B6893F83530DBB2022B08D07B6844
:1014480080225A657B68002283F83420012352E009
:101458007B681B681A687B681B6822F016021A6092
:101468007B681B685A697B681B6822F080025A6196
:101478007B681B6C002B03D17B689B6C002B07D00F
:101488007B681B681A687B681B6822F008021A6070
:101498007B681B681A687B681B6822F001021A6067
:1014A80013E0FFF79FFE0246BB68D31A052B0CD941
:1014B8007B6820225A657B68032283F835207B6885
:1014C800002283F83420032315E07B681B681B681F
:1014D80003F00103002BE4D17B68DB6D3F229A40C7
:1014E800FB689A607B68012283F835207B680022BC
:1014F80083F83420002318461037BD4680BD80B4D9
:1015080083B000AF78607B6893F83530DBB2022B8C
:1015180004D07B6880225A6501230CE07B68052291
:1015280083F835207B681B681A687B681B6822F083
:1015380001021A60002318460C37BD465DF8047B8B
:101548007047000080B586B000AFF860B960C7E9A1
:1015580000230123FB75234B1B7E012B01D10223A2
:101568003BE0204B01221A764CF2503000F07CF818
:101578000346FB75FB7D002B2BD1FB68002B05D1A7
:101588003B781946B86800F027F916E0FB68012B8C
:1015980005D13B881946B86800F0FAF80DE0FB68F9
:1015A800022B05D13B681946B86800F0CFF804E073
:1015B800D7E90023B86800F097F84CF2503000F0F3
:1015C80053F80346FB75084B1B69074A23F00103D0
:1015D8001361044B00221A76FB7D18461837BD4666
:1015E80080BD00BFD45B0020003C024080B483B0C3
:1015F80000AF0023FB710B4B1B69002B0BDA094B67
:10160800094A5A60074B094A5A60064B1B69002B66
:1016180001DA0123FB71FB7918460C37BD465DF8EA
:10162800047B7047003C024023016745AB89EFCD3E
:1016380080B400AF054B1B69044A43F000431361B3
:1016480000231846BD465DF8047B7047003C024005
:1016580080B400AF034BDB691846BD465DF8047BD8
:10166800704700BFD45B002080B584B000AF7860BD
:101678000023FB601A4B0022DA61FFF7B3FDF86024
:1016880010E07B68B3F1FF3F0CD07B68002B07D0DC
:10169800FFF7A8FD0246FB68D31A7A689A4201D27E
:1016A800032319E00F4BDB6803F48033002BE8D1E8
:1016B8000C4BDB6803F00103002B02D0094B01221D
:1016C800DA60084BDB6803F0F203002B03D000F06C
:1016D800A5F8012300E0002318461037BD4680BD59
:1016E800D45B0020003C024080B485B000AFF860B5
:1016F800C7E90023144B1B69134A23F44073136191
:10170800114B1B69104A43F4407313610E4B1B695C
:101718000D4A43F001031361FB683A681A60BFF38E
:101728006F8F00BFD7E900014FF000024FF00003B0
:101738000A000023F968043113460B6000BF143710
:10174800BD465DF8047B7047003C024080B483B01E
:1017580000AF786039600D4B1B690C4A23F4407365
:1017680013610A4B1B69094A43F400731361074B61
:101778001B69064A43F0010313617B683A681A60E3
:1017880000BF0C37BD465DF8047B7047003C024043
:1017980080B483B000AF78600B467B800D4B1B692B
:1017A8000C4A23F4407313610A4B1B69094A43F43A
:1017B80080731361074B1B69064A43F001031361E9
:1017C8007B687A881A8000BF0C37BD465DF8047BB9
:1017D800704700BF003C024080B483B000AF78601F
:1017E8000B46FB700C4B1B690B4A23F440731361C7
:1017F800094B094A1B691361074B1B69064A43F0E9
:10180800010313617B68FA781A7000BF0C37BD4674
:101818005DF8047B704700BF003C024080B400AF15
:10182800274BDB6803F01003002B08D0254BDB693E
:1018380043F01003234AD361214B1022DA60204B76
:10184800DB6803F02003002B08D01E4BDB6943F054
:1018580008031C4AD3611A4B2022DA60184BDB6854
:1018680003F04003002B08D0164BDB6943F0040358
:10187800144AD361124B4022DA60114BDB6803F043
:101888008003002B08D00F4BDB6943F002030D4A9D
:10189800D3610B4B8022DA60094BDB6803F002034B
:1018A800002B08D0074BDB6943F02003054AD361BE
:1018B800034B0222DA6000BFBD465DF8047B704727
:1018C800003C0240D45B002080B584B000AF786053
:1018D80039600123FB730023BB60314B1B7E012B56
:1018E80001D1022358E02E4B01221A764CF25030D7
:1018F800FFF7BAFE0346FB73FB7B002B48D13B681E
:101908004FF0FF321A607B681B68012B15D17B688A
:101918001B69DAB27B685B681946104600F044F828
:101928004CF25030FFF7A0FE0346FB731D4B1B69BA
:101938001C4A23F00403136128E07B689B68BB60A2
:101948001CE07B681B69DBB21946B86800F050F8E8
:101958004CF25030FFF788FE0346FB73114B1B69AE
:10196800104A23F0FA031361FB7B002B03D03B687A
:10197800BA681A600AE0BB680133BB607B68DA6842
:101988007B689B681344BA689A42DAD300F078F807
:10199800034B00221A76FB7B18461037BD4680BDE4
:1019A800D45B0020003C024080B483B000AF034603
:1019B8003960FB710D4B1B690C4A23F440731361AA
:1019C8000A4B1B69094A43F004031361074B1A6960
:1019D800FB791B021343054A43F48033136100BFAC
:1019E8000C37BD465DF8047B704700BF003C0240E1
:1019F80080B485B000AF78600B46FB700023FB60B5
:101A0800FB78002B02D10023FB6010E0FB78012B50
:101A180003D14FF48073FB6009E0FB78022B03D1FC
:101A28004FF40073FB6002E04FF44073FB60134B0C
:101A38001B69124A23F440731361104B1A690F494A
:101A4800FB6813430B610D4B1B690C4A23F0F80329
:101A580013610A4B1A697B68DB001343074A43F09A
:101A680002031361054B1B69044A43F48033136175
:101A780000BF1437BD465DF8047B7047003C024048
:101A880080B400AF204B1B6803F40073002B17D001
:101A98001D4B1B681C4A23F4007313601A4B1B6808
:101AA800194A43F400631360174B1B68164A23F462
:101AB80000631360144B1B68134A43F400731360EC
:101AC800114B1B6803F48063002B17D00E4B1B6867
:101AD8000D4A23F4806313600B4B1B680A4A43F4D6
:101AE80080531360084B1B68074A23F48053136024
:101AF800054B1B68044A43F48063136000BFBD466E
:101B08005DF8047B704700BF003C024080B489B098
:101B180000AF7860396000237B6100233B610023BC
:101B2800BB610023FB616BE10122FB6902FA03F34D
:101B38007B613B681B687A6913403B613A697B6942
:101B48009A4240F05A813B685B6803F00303012B1B
:101B580005D03B685B6803F00303022B30D17B6838
:101B68009B68BB61FB695B00032202FA03F3DB435A
:101B7800BA691340BB613B68DA68FB695B0002FA2B
:101B880003F3BA691343BB617B68BA699A607B68DF
:101B98005B68BB610122FB6902FA03F3DB43BA69A4
:101BA8001340BB613B685B681B0903F00102FB69DA
:101BB80002FA03F3BA691343BB617B68BA695A60D6
:101BC8003B685B6803F00303032B17D07B68DB6873
:101BD800BB61FB695B00032202FA03F3DB43BA69CA
:101BE8001340BB613B689A68FB695B0002FA03F328
:101BF800BA691343BB617B68BA69DA603B685B68A2
:101C080003F00303022B23D1FB69DA087B6808324F
:101C180053F82230BB61FB6903F007039B000F22D6
:101C280002FA03F3DB43BA691340BB613B681A69E4
:101C3800FB6903F007039B0002FA03F3BA69134335
:101C4800BB61FB69DA087B680832B96943F822107E
:101C58007B681B68BB61FB695B00032202FA03F324
:101C6800DB43BA691340BB613B685B6803F003025E
:101C7800FB695B0002FA03F3BA691343BB617B6833
:101C8800BA691A603B685B6803F44033002B00F0C4
:101C9800B4800023FB60604B5B6C5F4A43F4804375
:101CA80053645D4B5B6C03F48043FB60FB685B4AE9
:101CB800FB699B08023352F82330BB61FB6903F0D0
:101CC80003039B000F2202FA03F3DB43BA691340B4
:101CD800BB617B68524A93422BD07B68514A93423E
:101CE80025D07B68504A93421FD07B684F4A934265
:101CF80019D07B684E4A934213D07B684D4A934271
:101D08000DD07B684C4A934207D07B684B4A93427C
:101D180001D107230EE008230CE006230AE005237F
:101D280008E0042306E0032304E0022302E0012381
:101D380000E00023FA6902F0030292009340BA69B6
:101D48001343BB613549FB699B080233BA6941F803
:101D580023203B4B9B68BB613B69DB43BA6913405B
:101D6800BB613B685B6803F48013002B03D0BA693E
:101D78003B691343BB61324ABB699360304BDB68F4
:101D8800BB613B69DB43BA691340BB613B685B6875
:101D980003F40013002B03D0BA693B691343BB61FA
:101DA800274ABB69D360264B5B68BB613B69DB4351
:101DB800BA691340BB613B685B6803F40033002BCE
:101DC80003D0BA693B691343BB611D4ABB695360C1
:101DD8001B4B1B68BB613B69DB43BA691340BB61A2
:101DE8003B685B6803F48033002B03D0BA693B6916
:101DF8001343BB61124ABB691360FB690133FB6182
:101E0800FB690F2B7FF690AE00BF00BF2437BD469D
:101E18005DF8047B704700BF00380240003801407D
:101E2800000002400004024000080240000C02408A
:101E3800001002400014024000180240001C02403A
:101E4800003C014080B483B000AF78600B467B80D3
:101E580013467B707B78002B03D07A887B689A6165
:101E680003E07B881A047B689A6100BF0C37BD4683
:101E78005DF8047B7047000080B586B000AF7860DD
:101E88007B68002B01D1012367E27B681B6803F0A4
:101E98000103002B75D0884B9B6803F00C03042BBF
:101EA8000CD0854B9B6803F00C03082B12D1824B96
:101EB8005B6803F48003B3F5800F0BD17E4B1B687E
:101EC80003F40033002B5BD07B685B68002B57D191
:101ED800012342E27B685B68B3F5803F06D1764B0D
:101EE8001B68754A43F4803313601DE07B685B68A8
:101EF800B3F5A02F0CD1704B1B686F4A43F48023B5
:101F080013606D4B1B686C4A43F4803313600BE01D
:101F1800694B1B68684A23F480331360664B1B685F
:101F2800654A23F4802313607B685B68002B13D019
:101F3800FFF758F9386108E0FFF754F902463B69A2
:101F4800D31A642B01D9032307E25B4B1B6803F404
:101F58000033002BF0D014E0FFF744F9386108E0B3
:101F6800FFF740F902463B69D31A642B01D90323D2
:101F7800F3E1514B1B6803F40033002BF0D100E070
:101F880000BF7B681B6803F00203002B63D04A4B39
:101F98009B6803F00C03002B0BD0474B9B6803F0A6
:101FA8000C03082B1CD1444B5B6803F48003002B03
:101FB80016D1414B1B6803F00203002B05D07B6848
:101FC800DB68012B01D00123C7E13B4B1B6823F0E1
:101FD800F8027B681B69DB00374913430B603AE062
:101FE8007B68DB68002B20D0344B01221A60FFF796
:101FF800F9F8386108E0FFF7F5F802463B69D31AAB
:10200800022B01D90323A8E12B4B1B6803F0020321
:10201800002BF0D0284B1B6823F0F8027B681B6963
:10202800DB00254913430B6015E0244B00221A609E
:10203800FFF7D8F8386108E0FFF7D4F802463B69A3
:10204800D31A022B01D9032387E11B4B1B6803F02A
:102058000203002BF0D17B681B6803F00803002BF8
:1020680036D07B685B69002B16D0154B01221A60AD
:10207800FFF7B8F8386108E0FFF7B4F802463B69A3
:10208800D31A022B01D9032367E10B4B5B6F03F0D3
:102098000203002BF0D01BE0094B00221A60FFF767
:1020A800A1F838610EE0FFF79DF802463B69D31AA4
:1020B800022B07D9032350E10038024000004742B1
:1020C800800E4742884B5B6F03F00203002BEAD176
:1020D8007B681B6803F00403002B00F09780002343
:1020E800FB75814B1B6C03F08053002B0FD1002331
:1020F800BB607D4B1B6C7C4A43F0805313647A4B66
:102108001B6C03F08053BB60BB680123FB75774BE6
:102118001B6803F48073002B18D1744B1B68734A37
:1021280043F480731360FFF75DF8386108E0FFF748
:1021380059F802463B69D31A022B01D903230CE153
:102148006A4B1B6803F48073002BF0D07B689B6894
:10215800012B06D1644B1B6F634A43F001031367DD
:102168001CE07B689B68052B0CD15F4B1B6F5E4A9C
:1021780043F0040313675C4B1B6F5B4A43F0010396
:1021880013670BE0584B1B6F574A23F00103136783
:10219800554B1B6F544A23F0040313677B689B68F5
:1021A800002B15D0FFF71EF838610AE0FFF71AF880
:1021B80002463B69D31A41F28832934201D903237C
:1021C800CBE0494B1B6F03F00203002BEED014E069
:1021D800FFF708F838610AE0FFF704F802463B69A0
:1021E800D31A41F28832934201D90323B5E03E4B1A
:1021F8001B6F03F00203002BEED1FB7D012B05D1F1
:10220800394B1B6C384A23F0805313647B689B69F5
:10221800002B00F0A180344B9B6803F00C03082BC3
:102228005CD07B689B69022B41D1314B00221A603C
:10223800FEF7D8FF386108E0FEF7D4FF02463B6995
:10224800D31A022B01D9032387E0274B1B6803F01D
:102258000073002BF0D17B68DA697B681B6A1A432C
:102268007B685B6A9B011A437B689B6A5B08013B3E
:102278001B041A437B68DB6A1B061B4913434B602C
:102288001B4B01221A60FEF7ADFF386108E0FEF72C
:10229800A9FF02463B69D31A022B01D903235CE04C
:1022A800114B1B6803F00073002BF0D054E0104B67
:1022B80000221A60FEF796FF386108E0FEF792FFE9
:1022C80002463B69D31A022B01D9032345E0064B8A
:1022D8001B6803F00073002BF0D13DE07B689B691D
:1022E800012B07D1012338E000380240007000407C
:1022F800600047421B4B5B68FB607B689B69012B56
:1023080028D0FB6803F480027B68DB699A4221D1FC
:10231800FB6803F03F027B681B6A9A421AD1FA688D
:1023280047F6C07313407A68526A9201934211D1FA
:10233800FB6803F440327B689B6A5B08013B1B0423
:102348009A4207D1FB6803F070627B68DB6A1B0660
:102358009A4201D0012300E0002318461837BD46F1
:1023680080BD00BF0038024080B584B000AF7860FF
:1023780039607B68002B01D10123CCE0684B1B68D6
:1023880003F007033A689A420CD9654B3A68D2B20F
:102398001A70634B1B6803F007033A689A4201D02E
:1023A8000123B8E07B681B6803F00203002B20D0F0
:1023B8007B681B6803F00403002B05D0594B9B680E
:1023C800584A43F4E05393607B681B6803F00803A2
:1023D800002B05D0534B9B68524A43F460439360EB
:1023E800504B9B6823F0F0027B689B684D49134370
:1023F8008B607B681B6803F00103002B44D07B686B
:102408005B68012B07D1474B1B6803F40033002B93
:1024180019D101237FE07B685B68022B03D07B68BE
:102428005B68032B07D13F4B1B6803F00073002B3D
:1024380009D101236FE03B4B1B6803F00203002B1B
:1024480001D1012367E0374B9B6823F003027B68C7
:102458005B68344913438B60FEF7C4FEF8600AE0FA
:10246800FEF7C0FE0246FB68D31A41F28832934257
:1024780001D903234FE02B4B9B6803F00C027B68C8
:102488005B689B009A42EBD1254B1B6803F007035E
:102498003A689A420CD2224B3A68D2B21A70204B50
:1024A8001B6803F007033A689A4201D0012332E01F
:1024B8007B681B6803F00403002B08D0194B9B684A
:1024C80023F4E0527B68DB68164913438B607B6812
:1024D8001B6803F00803002B09D0124B9B6823F4F8
:1024E80060427B681B69DB000E4913438B6000F078
:1024F80021F802460B4B9B681B0903F00F030A499E
:10250800CB5C22FA03F3094A1360094B1B6818468F
:10251800FEF724FE002318461037BD4680BD00BFD5
:10252800003C024000380240C43800080000002087
:10253800040000202DE9B04F90B000AF00237B636A
:102548000023FB6300233B630023BB63594B9B6859
:1025580003F00C03082B0DD0082B00F2A180002BF0
:1025680002D0042B03D09BE0534BBB639BE0534B3F
:10257800BB6398E04F4B5B6803F03F037B634D4BB5
:102588005B6803F48003002B28D04A4B5B689B09E7
:1025980000223B627A623B6AC3F308000021474B82
:1025A80003FB01F2002300FB03F31344434AA0FB9F
:1025B8000212FA620A46BA62FA6A1344FB627B6B39
:1025C8000022BB61FA61D7E90623D7E90A01FDF7C2
:1025D80009FE02460B461346FB6353E0354B5B6826
:1025E8009B0900223B617A613B69C3F3080A4FF0FB
:1025F800000B52465B464FF000004FF000015901B6
:1026080041EAD261500102460B46B2EB0A0863EB7D
:102618000B094FF000024FF000034FEA891343EA19
:1026280098634FEA8812B2EB080463EB09054FF090
:1026380000024FF00003EB0043EA5473E200144633
:102648001D4614EB0A033B6045EB0B037B604FF020
:1026580000024FF00003D7E9004529468B022146C6
:1026680043EA915321468A02104619467B6B0022A1
:10267800BB60FA60D7E90223FDF7B4FD02460B46BA
:102688001346FB630B4B5B681B0C03F0030301331E
:102698005B003B63FA6B3B6BB2FBF3F3BB6302E09B
:1026A800054BBB6300BFBB6B18464037BD46BDE852
:1026B800B08F00BF003802400024F40040787D014C
:1026C80080B400AF034B1B681846BD465DF8047B19
:1026D800704700BF0000002080B500AFFFF7F0FF93
:1026E8000246054B9B689B0A03F007030349CB5C32
:1026F80022FA03F3184680BD00380240D438000897
:1027080080B500AFFFF7DCFF0246054B9B685B0B0B
:1027180003F007030349CB5C22FA03F3184680BD94
:1027280000380240D438000880B582B000AF786025
:102738007B68002B01D101233FE07B6893F83D3093
:10274800DBB2002B06D17B68002283F83C20786836
:10275800FEF722FC7B68242283F83D207B681B68F7
:10276800DA687B681B6822F40052DA60786800F047
:10277800DFFD7B681B681A697B681B6822F490423E
:102788001A617B681B685A697B681B6822F02A02F9
:102798005A617B681B68DA687B681B6842F40052E0
:1027A800DA607B6800221A647B68202283F83D2067
:1027B8007B68202283F83E20002318460837BD4650
:1027C80080BD80B58AB002AFF860B9603B6013463F
:1027D800FB8000237B61FB6893F83D30DBB2202B44
:1027E8007CD1BB68002B02D0FB88002B01D10123D0
:1027F80075E0FB6893F83C30012B01D102236EE0B1
:10280800FB68012283F83C20FB6800221A64FB68FD
:10281800212283F83D20FEF7E5FC7861FB68FA8801
:102828009A84FB68FA88DA84FB689B68B3F5805F52
:1028380008D1FB681B69002B04D10023FB61BB682E
:10284800BB6103E0BB68FB610023BB61FB6800223E
:1028580083F83C202AE03B6800937B6900228021B2
:10286800F86800F01FFB0346002B01D0032336E075
:10287800FB69002B0BD1BB691B881A46FB681B68D8
:10288800C2F308025A60BB690233BB6107E0FB6907
:102898001A78FB681B685A60FB690133FB61FB68A7
:1028A800DB8C9BB2013B9AB2FB68DA84FB68DB8C59
:1028B8009BB2002BCFD13B6800937B69002240215B
:1028C800F86800F0EFFA0346002B01D0032306E076
:1028D800FB68202283F83D20002300E002231846ED
:1028E8002037BD4680BD80B584B000AFF860B960C0
:1028F8001346FB80FB6893F83E30DBB2202B1DD1DA
:10290800BB68002B02D0FB88002B01D1012316E005
:10291800FB6893F83C30012B01D102230FE0FB68E0
:10292800012283F83C20FB6800221A63FB881A46C0
:10293800B968F86800F024FB034600E00223184653
:102948001037BD4680BD000080B5BAB000AF7860D2
:102958007B681B681B68C7F8E4307B681B68DB680A
:10296800C7F8E0307B681B685B69C7F8DC30002378
:10297800C7F8D8300023C7F8D430D7F8E43003F0CC
:102988000F03C7F8D830D7F8D830002B0FD1D7F8B5
:10299800E43003F02003002B09D0D7F8E03003F02F
:1029A8002003002B03D0786800F007FC56E2D7F824
:1029B800D830002B00F0DE80D7F8DC3003F00103BC
:1029C800002B06D1D7F8E03003F49073002B00F009
:1029D800D180D7F8E43003F00103002B0BD0D7F8EF
:1029E800E03003F48073002B05D07B681B6C43F048
:1029F80001027B681A64D7F8E43003F00403002B63
:102A08000BD0D7F8DC3003F00103002B05D07B682E
:102A18001B6C43F002027B681A64D7F8E43003F0B9
:102A28000203002B0BD0D7F8DC3003F00103002B96
:102A380005D07B681B6C43F004027B681A64D7F8E6
:102A4800E43003F00803002B11D0D7F8E03003F08E
:102A58002003002B05D1D7F8DC3003F00103002B4D
:102A680005D07B681B6C43F008027B681A647B689E
:102A78001B6C002B00F0ED81D7F8E43003F0200345
:102A8800002B08D0D7F8E03003F02003002B02D049
:102A9800786800F092FB7B681B685B6903F0400371
:102AA800402B0CBF01230023DBB2C7F8D4307B686E
:102AB8001B6C03F00803002B03D1D7F8D430002B8C
:102AC8004FD0786800F09AFA7B681B685B6903F05E
:102AD8004003402B41D17B681B681433C7F89C30F6
:102AE800D7F89C3053E8003FC7F89830D7F89830AB
:102AF80023F04003C7F8D0307B681B681433D7F83D
:102B0800D020C7F8A820C7F8A430D7F8A410D7F861
:102B1800A82041E80023C7F8A030D7F8A030002B40
:102B2800D9D17B689B6B002B13D07B689B6B7D4A4C
:102B38001A657B689B6B1846FEF7E1FC0346002B81
:102B480016D07B689B6B1B6D7A68926B1046984712
:102B58000EE0786800F090F90AE0786800F08CF9E7
:102B680006E0786800F088F97B6800221A6470E152
:102B780000BF6EE17B681B6B012B40F04A81D7F8E0
:102B8800E43003F01003002B00F04381D7F8E03065
:102B980003F01003002B00F03C810023BB607B682E
:102BA8001B681B68BB607B681B685B68BB60BB6895
:102BB8007B681B685B6903F04003402B40F0B480DE
:102BC8007B689B6B1B685B68A7F8BE30B7F8BE30A4
:102BD800002B00F040817B689B8DB7F8BE209A429D
:102BE80080F039817B68B7F8BE20DA857B689B6BFB
:102BF800DB69B3F5807F00F088807B681B680C3345
:102C0800C7F88830D7F8883053E8003FC7F88430D1
:102C1800D7F8843023F48073C7F8B8307B681B6812
:102C28000C33D7F8B820C7F89420C7F89030D7F8F5
:102C38009010D7F8942041E80023C7F88C30D7F8D3
:102C48008C30002BD9D17B681B6814337B677B6F72
:102C580053E8003F3B673B6F23F00103C7F8B430EC
:102C68007B681B681433D7F8B420C7F88020FB674B
:102C7800F96FD7F8802041E80023BB67BB6F002BB2
:102C8800E1D17B681B6814333B663B6E53E8003F19
:102C9800FB65FB6D23F04003C7F8B0307B681B6809
:102CA8001433D7F8B020FA66BB66B96EFA6E41E8FD
:102CB80000237B667B6E002BE3D17B68202283F8A0
:102CC8003E207B6800221A637B681B680C33FB6418
:102CD800FB6C53E8003FBB64BB6C23F01003C7F8E0
:102CE800AC307B681B680C33D7F8AC20BA657B65C1
:102CF800796DBA6D41E800233B653B6D002BE3D14C
:102D08007B689B6B1846FEF78AFB7B689A8D7B680D
:102D1800DB8D9BB2D31A9BB21946786800F0B6F8DF
:102D280099E000BFCB3000087B689A8D7B68DB8D0B
:102D38009BB2D31AA7F8CE307B68DB8D9BB2002BF1
:102D480000F08B80B7F8CE30002B00F086807B68CF
:102D58001B680C33BB63BB6B53E8003F7B637B6B27
:102D680023F49073C7F8C8307B681B680C33D7F816
:102D7800C8207A643B64396C7A6C41E80023FB63B1
:102D8800FB6B002BE3D17B681B6814337B627B6A87
:102D980053E8003F3B623B6A23F00103C7F8C430A5
:102DA8007B681B681433D7F8C4203A63FB62F96A5E
:102DB8003A6B41E80023BB62BB6A002BE3D17B6816
:102DC800202283F83E207B6800221A637B681B68F8
:102DD8000C333B613B6953E8003FFB60FB6823F021
:102DE8001003C7F8C0307B681B680C33D7F8C020C5
:102DF800FA61BB61B969FA6941E800237B617B69C3
:102E0800002BE3D1B7F8CE301946786800F03EF8C9
:102E180023E0D7F8E43003F08003002B09D0D7F87B
:102E2800E03003F08003002B03D0786800F05DF9F0
:102E380014E0D7F8E43003F04003002B0ED0D7F8A5
:102E4800E03003F04003002B08D0786800F09DF9CB
:102E580004E000BF02E000BF00E000BFE837BD4665
:102E680080BD00BF80B483B000AF786000BF0C376E
:102E7800BD465DF8047B704780B483B000AF7860CE
:102E880000BF0C37BD465DF8047B704780B483B043
:102E980000AF78600B467B8000BF0C37BD465DF8FD
:102EA800047B704780B590B000AFF860B9603B60B4
:102EB8001346FB7150E0BB6CB3F1FF3F4CD0BB6CC9
:102EC800002B07D0FEF78EF902463B68D31ABA6C7E
:102ED8009A4241D2FB681B680C33BB62BB6A53E859
:102EE800003F7B627B6A23F4D073FB63FB681B683B
:102EF8000C33FA6B7A633B63396B7A6B41E80023D6
:102F0800FB62FB6A002BE5D1FB681B6814337B610D
:102F18007B6953E8003F3B613B6923F00103BB63D6
:102F2800FB681B681433BA6B3A62FB61F9693A6A49
:102F380041E80023BB61BB69002BE5D1FB68202277
:102F480083F83D20FB68202283F83E20FB6800229E
:102F580083F83C2003230FE0FB681B681A68BB68F2
:102F68001340BA689A420CBF01230023DBB21A4609
:102F7800FB799A429FD0002318464037BD4680BD52
:102F880080B485B000AFF860B9601346FB80FB6879
:102F9800BA689A62FB68FA889A85FB68FA88DA85C3
:102FA800FB6800221A64FB68222283F83E20FB6833
:102FB800002283F83C20FB681B69002B07D0FB68C4
:102FC8001B68DA68FB681B6842F48072DA60FB6889
:102FD8001B685A69FB681B6842F001025A61FB686A
:102FE8001B68DA68FB681B6842F02002DA6000237D
:102FF80018461437BD465DF8047B704780B495B019
:1030080000AF78607B681B680C337B637B6B53E88D
:10301800003F3B633B6B23F49073FB647B681B6846
:103028000C33FA6C3A64FB63F96B3A6C41E80023A1
:10303800BB63BB6B002BE5D17B681B6814333B6219
:103048003B6A53E8003FFB61FB6923F00103BB6463
:103058007B681B681433BA6CFA62BB62B96AFA6A95
:1030680041E800237B627B6A002BE5D17B681B6B00
:10307800012B19D17B681B680C33FB60FB6853E894
:10308800003FBB60BB6823F010037B647B681B6850
:103098000C337A6CBA617B617969BA6941E80023BB
:1030A8003B613B69002BE5D17B68202283F83E20F9
:1030B8007B6800221A6300BF5437BD465DF8047B65
:1030C800704780B584B000AF78607B689B6BFB600D
:1030D800FB680022DA85FB680022DA84F868FFF7CB
:1030E800CBFE00BF1037BD4680BD80B485B000AFB1
:1030F80078607B6893F83D30DBB2212B3ED17B684A
:103108009B68B3F5805F14D17B681B69002B10D1D5
:103118007B681B6AFB60FB681B881A467B681B6818
:10312800C2F308025A607B681B6A9A1C7B681A62A1
:1031380008E07B681B6A591C7A6811621A787B68F8
:103148001B685A607B68DB8C9BB2013B9BB27A6838
:103158001946D184002B0FD17B681B68DA687B681D
:103168001B6822F08002DA607B681B68DA687B687B
:103178001B6842F04002DA60002300E00223184690
:103188001437BD465DF8047B704780B582B000AF48
:1031980078607B681B68DA687B681B6822F04002ED
:1031A800DA607B68202283F83D207868FFF75AFEB2
:1031B800002318460837BD4680BD80B58CB000AFE7
:1031C80078607B6893F83E30DBB2222B40F0AB800E
:1031D8007B689B68B3F5805F17D17B681B69002B00
:1031E80013D10023FB627B689B6ABB627B681B6808
:1031F8005B689BB2C3F308039AB2BB6A1A807B6808
:103208009B6A9A1C7B689A6226E07B689B6AFB62D1
:103218000023BB627B689B68B3F5805F07D07B683F
:103228009B68002B0AD17B681B69002B06D17B6841
:103238001B685B68DAB2FB6A1A7008E07B681B6877
:103248005B68DBB203F07F03DAB2FB6A1A707B6853
:103258009B6A5A1C7B689A627B68DB8D9BB2013B38
:103268009BB27A681946D185002B5AD17B681B68B6
:10327800DA687B681B6822F02002DA607B681B68CA
:10328800DA687B681B6822F48072DA607B681B68E6
:103298005A697B681B6822F001025A617B68202208
:1032A80083F83E207B681B6B012B35D17B6800229D
:1032B8001A637B681B680C337B617B6953E8003FAA
:1032C8003B613B6923F010037B627B681B680C330E
:1032D8007A6A3A62FB61F9693A6A41E80023BB619C
:1032E800BB69002BE5D17B681B681B6803F01003E2
:1032F800102B0AD10023FB607B681B681B68FB60EE
:103308007B681B685B68FB60FB687B689B8D194664
:103318007868FFF7BBFD02E07868FDF74DFB0023F6
:1033280002E0002300E0022318463037BD4680BD86
:103338002DE9B04FC0B000AFC7F8F400D7F8F430AB
:103348001B681B6923F44050D7F8F430D968D7F8C4
:10335800F4301A6840EA01031361D7F8F4309A6828
:10336800D7F8F4301B691A43D7F8F4305B691A436D
:10337800D7F8F430DB691343C7F8F830D7F8F430DE
:103388001B68DB6823F4164121F00C01D7F8F430F0
:103398001A68D7F8F8300B43D360D7F8F4301B68B5
:1033A8005B6923F44070D7F8F4309969D7F8F430A2
:1033B8001A6840EA01035361D7F8F4301A688F4B52
:1033C8009A4205D0D7F8F4301A688D4B9A4204D146
:1033D800FFF796F9C7F8FC0003E0FFF77DF9C7F897
:1033E800FC00D7F8F430DB69B3F5004F40F00C81EE
:1033F800D7F8FC300022C7F8E830C7F8EC20D7E946
:103408003A4522462B469118B9655B41FB65D7E9D9
:103418001623214612EB0108294643EB01094FF018
:1034280000024FF000034FEAC90343EA58734FEA1A
:10343800C80290469946234618EB0303C7F8E030C4
:103448002B4649EB0303C7F8E430D7F8F4305B6840
:103458000022C7F8D830C7F8DC20D7E936120B4667
:10346800DB183B65134642EB03037B65D7E914235E
:10347800D7E93801FCF7B6FE02460B46614BA3FBC1
:1034880002235B091C01D7F8FC300022C7F8D030B2
:10349800C7F8D420D7E9348942464B469118B96415
:1034A8005B41FB64D7E91223414612EB010A494606
:1034B80043EB010B4FF000024FF000034FEACB0340
:1034C80043EA5A734FEACA0292469B4643461AEBAE
:1034D8000303C7F8C8304B464BEB0303C7F8CC309F
:1034E800D7F8F4305B680022C7F8C030C7F8C420AA
:1034F800D7E930120B46DB183B64134642EB030353
:103508007B64D7E91023D7E93201FCF76BFE02464A
:103518000B4611463B4BA3FB01235B09642202FBCC
:1035280003F3CB1ADB0003F13202364BA3FB022371
:103538005B095B0003F4F8731C44D7F8FC300022E5
:10354800C7F8B830C7F8BC20D7E92E8942464B46A1
:103558009118B9635B41FB63D7E90E2341465118C3
:10356800396349464B417B634FF000024FF000033B
:10357800D7E90CAB5946CB00514643EA5173514643
:10358800CA0010461946034642469B18C7F8B03091
:103598004B460A4642EB0303C7F8B430D7F8F43079
:1035A8005B680022C7F8A830C7F8AC20D7E92A1210
:1035B8000B46DB18BB62134642EB0303FB62D7E9F9
:1035C8000A23D7E92C01FCF70DFE02460B460D4BEA
:1035D800A3FB02135B09642101FB03F3D31ADB008D
:1035E8003233084AA2FB03235B0903F00702D7F82A
:1035F800F4301B6822449A6005E100BF00100140C6
:10360800001401401F85EB51D7F8FC300022C7F8A1
:10361800A030C7F8A420D7E9288942464B4691181C
:1036280039625B417B62D7E9082341465418494611
:1036380043EB01054FF000024FF00003EB0043EAB3
:103648005473E20014461D464346E318C7F8983001
:103658004B4645EB0303C7F89C30D7F8F4305B685A
:103668000022C7F89030C7F894204FF000024FF0BE
:103678000003D7E9244529468B00214643EA917384
:1036880021468A00D7E92601FCF7ACFD02460B4625
:10369800604BA3FB02235B091C01D7F8FC30002216
:1036A800C7F88830C7F88C20D7E9228942464B46AC
:1036B8009118B9615B41FB61D7E90623414651186E
:1036C800396149464B417B614FF000024FF00003DE
:1036D800D7E904AB5946CB00514643EA51735146EA
:1036E800CA0010461946034642469B18C7F8803060
:1036F8004B460A4642EB0303C7F88430D7F8F43048
:103708005B680022BB67FA674FF000024FF00003C6
:10371800D7E91E8949468B00414643EA91734146E1
:103728008A00D7E92001FCF75DFD02460B46394BBC
:10373800A3FB02135B09642101FB03F3D31A1B01EA
:103748003233344AA2FB03235B0903F0F0031C4421
:10375800D7F8FC3000223B677A67D7E91C894246D4
:103768004B469118B9605B41FB60D7E9022341469B
:103778005118396049464B417B604FF000024FF0C9
:103788000003D7E900AB5946CB00514643EA5173D1
:103798005146CA0010461946034642469B18BB6666
:1037A8004B460A4642EB0303FB66D7F8F4305B68E6
:1037B80000223B667A664FF000024FF00003D7E91B
:1037C800188949468B00414643EA917341468A006D
:1037D800D7E91A01FCF706FD02460B460D4BA3FB81
:1037E80002135B09642101FB03F3D31A1B01323373
:1037F800084AA2FB03235B0903F00F02D7F8F43051
:103808001B6822449A6000BF07F58077BD46BDE873
:10381800B08F00BF1F85EB5170B50D4D0D4C641B6B
:10382800A4100026A64209D10B4D0C4C00F020F83C
:10383800641BA4100026A64205D170BD55F8043BB0
:1038480098470136EEE755F8043B98470136F2E70A
:10385800E4380008E4380008E4380008E8380008CC
:1038680002440346934200D1704703F8011BF9E76D
:10387800F8B500BFF8BC08BC9E467047F8B500BF55
:08388800F8BC08BC9E46704725
:103890004F54415F53544152540000004F54415F14
:1038A000454E44004352435F4F4B00004352435F39
:1038B0004552524F520000004F544120454E54454E
:1038C000520000000000000000000000010203049C
:0C38D000060708090000000001020304C4
:0838DC0040C9FF7F010000005C
:0438E400AD0100082A
:0438E800890100084A
:0C38EC000024F4001000000001000000A7
:04000005080010CD12
:00000001FF
